{
  "_format": "hh-sol-artifact-1",
  "contractName": "PaymentContract",
  "sourceName": "contracts/PaymentContract.sol",
  "abi": [
    {
      "inputs": [
        {
          "internalType": "address",
          "name": "_usdtAddress",
          "type": "address"
        },
        {
          "internalType": "address",
          "name": "_projectWallet",
          "type": "address"
        }
      ],
      "stateMutability": "nonpayable",
      "type": "constructor"
    },
    {
      "inputs": [
        {
          "internalType": "address",
          "name": "owner",
          "type": "address"
        }
      ],
      "name": "OwnableInvalidOwner",
      "type": "error"
    },
    {
      "inputs": [
        {
          "internalType": "address",
          "name": "account",
          "type": "address"
        }
      ],
      "name": "OwnableUnauthorizedAccount",
      "type": "error"
    },
    {
      "anonymous": false,
      "inputs": [
        {
          "indexed": true,
          "internalType": "address",
          "name": "previousOwner",
          "type": "address"
        },
        {
          "indexed": true,
          "internalType": "address",
          "name": "newOwner",
          "type": "address"
        }
      ],
      "name": "OwnershipTransferred",
      "type": "event"
    },
    {
      "inputs": [],
      "name": "USDT",
      "outputs": [
        {
          "internalType": "contract IERC20",
          "name": "",
          "type": "address"
        }
      ],
      "stateMutability": "view",
      "type": "function"
    },
    {
      "inputs": [
        {
          "internalType": "uint256",
          "name": "",
          "type": "uint256"
        }
      ],
      "name": "allInvestors",
      "outputs": [
        {
          "internalType": "address",
          "name": "",
          "type": "address"
        }
      ],
      "stateMutability": "view",
      "type": "function"
    },
    {
      "inputs": [],
      "name": "claimEarnings",
      "outputs": [],
      "stateMutability": "nonpayable",
      "type": "function"
    },
    {
      "inputs": [
        {
          "internalType": "address",
          "name": "user",
          "type": "address"
        },
        {
          "internalType": "uint256",
          "name": "amount",
          "type": "uint256"
        }
      ],
      "name": "distributeExceedingPayment",
      "outputs": [],
      "stateMutability": "nonpayable",
      "type": "function"
    },
    {
      "inputs": [
        {
          "internalType": "uint256",
          "name": "poolPrice",
          "type": "uint256"
        },
        {
          "internalType": "bool",
          "name": "joinPool",
          "type": "bool"
        },
        {
          "internalType": "address",
          "name": "wallet",
          "type": "address"
        }
      ],
      "name": "distributeProjectFee",
      "outputs": [],
      "stateMutability": "nonpayable",
      "type": "function"
    },
    {
      "inputs": [
        {
          "internalType": "address[]",
          "name": "referrers",
          "type": "address[]"
        },
        {
          "internalType": "uint256[]",
          "name": "amounts",
          "type": "uint256[]"
        }
      ],
      "name": "distributeReferralPayments",
      "outputs": [],
      "stateMutability": "nonpayable",
      "type": "function"
    },
    {
      "inputs": [
        {
          "internalType": "uint256",
          "name": "",
          "type": "uint256"
        }
      ],
      "name": "earlyInvestors",
      "outputs": [
        {
          "internalType": "address",
          "name": "",
          "type": "address"
        }
      ],
      "stateMutability": "view",
      "type": "function"
    },
    {
      "inputs": [],
      "name": "getEarlyInvestorsLength",
      "outputs": [
        {
          "internalType": "uint256",
          "name": "",
          "type": "uint256"
        }
      ],
      "stateMutability": "view",
      "type": "function"
    },
    {
      "inputs": [
        {
          "internalType": "address",
          "name": "",
          "type": "address"
        }
      ],
      "name": "hasVoted",
      "outputs": [
        {
          "internalType": "bool",
          "name": "",
          "type": "bool"
        }
      ],
      "stateMutability": "view",
      "type": "function"
    },
    {
      "inputs": [],
      "name": "multiPoolAddress",
      "outputs": [
        {
          "internalType": "address",
          "name": "",
          "type": "address"
        }
      ],
      "stateMutability": "view",
      "type": "function"
    },
    {
      "inputs": [],
      "name": "owner",
      "outputs": [
        {
          "internalType": "address",
          "name": "",
          "type": "address"
        }
      ],
      "stateMutability": "view",
      "type": "function"
    },
    {
      "inputs": [],
      "name": "projectFeePercentage",
      "outputs": [
        {
          "internalType": "uint256",
          "name": "",
          "type": "uint256"
        }
      ],
      "stateMutability": "view",
      "type": "function"
    },
    {
      "inputs": [],
      "name": "projectWallet",
      "outputs": [
        {
          "internalType": "address",
          "name": "",
          "type": "address"
        }
      ],
      "stateMutability": "view",
      "type": "function"
    },
    {
      "inputs": [],
      "name": "renounceOwnership",
      "outputs": [],
      "stateMutability": "nonpayable",
      "type": "function"
    },
    {
      "inputs": [
        {
          "internalType": "address",
          "name": "_multiPoolAddress",
          "type": "address"
        }
      ],
      "name": "setMultiPoolAddress",
      "outputs": [],
      "stateMutability": "nonpayable",
      "type": "function"
    },
    {
      "inputs": [],
      "name": "startEmergencyVote",
      "outputs": [],
      "stateMutability": "nonpayable",
      "type": "function"
    },
    {
      "inputs": [],
      "name": "totalInvested",
      "outputs": [
        {
          "internalType": "uint256",
          "name": "",
          "type": "uint256"
        }
      ],
      "stateMutability": "view",
      "type": "function"
    },
    {
      "inputs": [
        {
          "internalType": "address",
          "name": "newOwner",
          "type": "address"
        }
      ],
      "name": "transferOwnership",
      "outputs": [],
      "stateMutability": "nonpayable",
      "type": "function"
    },
    {
      "inputs": [
        {
          "internalType": "address",
          "name": "",
          "type": "address"
        }
      ],
      "name": "userBalances",
      "outputs": [
        {
          "internalType": "uint256",
          "name": "",
          "type": "uint256"
        }
      ],
      "stateMutability": "view",
      "type": "function"
    },
    {
      "inputs": [
        {
          "internalType": "address",
          "name": "",
          "type": "address"
        }
      ],
      "name": "userInvestments",
      "outputs": [
        {
          "internalType": "uint256",
          "name": "",
          "type": "uint256"
        }
      ],
      "stateMutability": "view",
      "type": "function"
    },
    {
      "inputs": [
        {
          "internalType": "bool",
          "name": "voteInFavor",
          "type": "bool"
        }
      ],
      "name": "voteForEmergency",
      "outputs": [],
      "stateMutability": "nonpayable",
      "type": "function"
    },
    {
      "inputs": [],
      "name": "votesInFavor",
      "outputs": [
        {
          "internalType": "uint256",
          "name": "",
          "type": "uint256"
        }
      ],
      "stateMutability": "view",
      "type": "function"
    },
    {
      "inputs": [],
      "name": "votingActive",
      "outputs": [
        {
          "internalType": "bool",
          "name": "",
          "type": "bool"
        }
      ],
      "stateMutability": "view",
      "type": "function"
    }
  ],
  "bytecode": "0x6080604052600a6004556000600860006101000a81548160ff0219169083151502179055503480156200003157600080fd5b506040516200248838038062002488833981810160405281019062000057919062000297565b33600073ffffffffffffffffffffffffffffffffffffffff168173ffffffffffffffffffffffffffffffffffffffff1603620000cd5760006040517f1e4fbdf7000000000000000000000000000000000000000000000000000000008152600401620000c49190620002ef565b60405180910390fd5b620000de816200016960201b60201c565b5081600160006101000a81548173ffffffffffffffffffffffffffffffffffffffff021916908373ffffffffffffffffffffffffffffffffffffffff16021790555080600260006101000a81548173ffffffffffffffffffffffffffffffffffffffff021916908373ffffffffffffffffffffffffffffffffffffffff16021790555050506200030c565b60008060009054906101000a900473ffffffffffffffffffffffffffffffffffffffff169050816000806101000a81548173ffffffffffffffffffffffffffffffffffffffff021916908373ffffffffffffffffffffffffffffffffffffffff1602179055508173ffffffffffffffffffffffffffffffffffffffff168173ffffffffffffffffffffffffffffffffffffffff167f8be0079c531659141344cd1fd0a4f28419497f9722a3daafe3b4186f6b6457e060405160405180910390a35050565b600080fd5b600073ffffffffffffffffffffffffffffffffffffffff82169050919050565b60006200025f8262000232565b9050919050565b620002718162000252565b81146200027d57600080fd5b50565b600081519050620002918162000266565b92915050565b60008060408385031215620002b157620002b06200022d565b5b6000620002c18582860162000280565b9250506020620002d48582860162000280565b9150509250929050565b620002e98162000252565b82525050565b6000602082019050620003066000830184620002de565b92915050565b61216c806200031c6000396000f3fe608060405234801561001057600080fd5b506004361061014d5760003560e01c8063654a0099116100c3578063c54e44eb1161007c578063c54e44eb1461037a578063cbf4b23b14610398578063d9ceab13146103b6578063f0ceaa0f146103c0578063f2fde38b146103de578063f43de387146103fa5761014d565b8063654a0099146102ca578063715018a6146102d45780638da5cb5b146102de578063af9d7820146102fc578063b023eba51461032c578063beb08ab91461035c5761014d565b80632aaeebc1116101155780632aaeebc11461021a578063408e2727146102365780634b03b7891461025457806350f1bfc8146102725780635216aeec1461028e5780635e5d6bb5146102ac5761014d565b806309eef43e146101525780630adefe811461018257806315ceb7501461019e578063210d0f1d146101ce57806326224c64146101ea575b600080fd5b61016c6004803603810190610167919061153e565b610416565b6040516101799190611586565b60405180910390f35b61019c6004803603810190610197919061153e565b610436565b005b6101b860048036038101906101b391906115d7565b610482565b6040516101c59190611613565b60405180910390f35b6101e860048036038101906101e3919061165a565b6104c1565b005b61020460048036038101906101ff919061153e565b610780565b60405161021191906116bc565b60405180910390f35b610234600480360381019061022f91906116d7565b610798565b005b61023e61094f565b60405161024b9190611586565b60405180910390f35b61025c610962565b6040516102699190611613565b60405180910390f35b61028c60048036038101906102879190611920565b610988565b005b610296610b53565b6040516102a391906116bc565b60405180910390f35b6102b4610b59565b6040516102c191906116bc565b60405180910390f35b6102d2610b5f565b005b6102dc610c64565b005b6102e6610c78565b6040516102f39190611613565b60405180910390f35b610316600480360381019061031191906115d7565b610ca1565b6040516103239190611613565b60405180910390f35b6103466004803603810190610341919061153e565b610ce0565b60405161035391906116bc565b60405180910390f35b610364610cf8565b6040516103719190611613565b60405180910390f35b610382610d1e565b60405161038f91906119f7565b60405180910390f35b6103a0610d44565b6040516103ad91906116bc565b60405180910390f35b6103be610d4a565b005b6103c8610ef8565b6040516103d591906116bc565b60405180910390f35b6103f860048036038101906103f3919061153e565b610f05565b005b610414600480360381019061040f9190611a12565b610f8b565b005b60066020528060005260406000206000915054906101000a900460ff1681565b61043e611075565b80600360006101000a81548173ffffffffffffffffffffffffffffffffffffffff021916908373ffffffffffffffffffffffffffffffffffffffff16021790555050565b6005818154811061049257600080fd5b906000526020600020016000915054906101000a900473ffffffffffffffffffffffffffffffffffffffff1681565b600360009054906101000a900473ffffffffffffffffffffffffffffffffffffffff1673ffffffffffffffffffffffffffffffffffffffff163373ffffffffffffffffffffffffffffffffffffffff1614610551576040517f08c379a000000000000000000000000000000000000000000000000000000000815260040161054890611aaf565b60405180910390fd5b81156106e457601460058054905010156105c9576005819080600181540180825580915050600190039060005260206000200160009091909190916101000a81548173ffffffffffffffffffffffffffffffffffffffff021916908373ffffffffffffffffffffffffffffffffffffffff1602179055505b6000600960008373ffffffffffffffffffffffffffffffffffffffff1673ffffffffffffffffffffffffffffffffffffffff168152602001908152602001600020540361067457600b819080600181540180825580915050600190039060005260206000200160009091909190916101000a81548173ffffffffffffffffffffffffffffffffffffffff021916908373ffffffffffffffffffffffffffffffffffffffff1602179055505b82600960008373ffffffffffffffffffffffffffffffffffffffff1673ffffffffffffffffffffffffffffffffffffffff16815260200190815260200160002060008282546106c39190611afe565b9250508190555082600a60008282546106dc9190611afe565b925050819055505b60006064600454856106f69190611b32565b6107009190611ba3565b905080600c6000600260009054906101000a900473ffffffffffffffffffffffffffffffffffffffff1673ffffffffffffffffffffffffffffffffffffffff1673ffffffffffffffffffffffffffffffffffffffff16815260200190815260200160002060008282546107739190611afe565b9250508190555050505050565b600c6020528060005260406000206000915090505481565b600860009054906101000a900460ff166107e7576040517f08c379a00000000000000000000000000000000000000000000000000000000081526004016107de90611c20565b60405180910390fd5b60001515600660003373ffffffffffffffffffffffffffffffffffffffff1673ffffffffffffffffffffffffffffffffffffffff16815260200190815260200160002060009054906101000a900460ff1615151461087a576040517f08c379a000000000000000000000000000000000000000000000000000000000815260040161087190611c8c565b60405180910390fd5b610883336110fc565b6108c2576040517f08c379a00000000000000000000000000000000000000000000000000000000081526004016108b990611d1e565b60405180910390fd5b6001600660003373ffffffffffffffffffffffffffffffffffffffff1673ffffffffffffffffffffffffffffffffffffffff16815260200190815260200160002060006101000a81548160ff0219169083151502179055508015610939576007600081548092919061093390611d3e565b91905055505b600b6007541061094c5761094b6111a4565b5b50565b600860009054906101000a900460ff1681565b600360009054906101000a900473ffffffffffffffffffffffffffffffffffffffff1681565b600360009054906101000a900473ffffffffffffffffffffffffffffffffffffffff1673ffffffffffffffffffffffffffffffffffffffff163373ffffffffffffffffffffffffffffffffffffffff1614610a18576040517f08c379a0000000000000000000000000000000000000000000000000000000008152600401610a0f90611aaf565b60405180910390fd5b8051825114610a5c576040517f08c379a0000000000000000000000000000000000000000000000000000000008152600401610a5390611df8565b60405180910390fd5b60005b8251811015610b4e57600073ffffffffffffffffffffffffffffffffffffffff16838281518110610a9357610a92611e18565b5b602002602001015173ffffffffffffffffffffffffffffffffffffffff160315610b4e57818181518110610aca57610ac9611e18565b5b6020026020010151600c6000858481518110610ae957610ae8611e18565b5b602002602001015173ffffffffffffffffffffffffffffffffffffffff1673ffffffffffffffffffffffffffffffffffffffff1681526020019081526020016000206000828254610b3a9190611afe565b925050819055508080600101915050610a5f565b505050565b600a5481565b60075481565b601460058054905014610ba7576040517f08c379a0000000000000000000000000000000000000000000000000000000008152600401610b9e90611eb9565b60405180910390fd5b600860009054906101000a900460ff1615610bf7576040517f08c379a0000000000000000000000000000000000000000000000000000000008152600401610bee90611f25565b60405180910390fd5b610c00336110fc565b610c3f576040517f08c379a0000000000000000000000000000000000000000000000000000000008152600401610c3690611d1e565b60405180910390fd5b6001600860006101000a81548160ff0219169083151502179055506000600781905550565b610c6c611075565b610c766000611400565b565b60008060009054906101000a900473ffffffffffffffffffffffffffffffffffffffff16905090565b600b8181548110610cb157600080fd5b906000526020600020016000915054906101000a900473ffffffffffffffffffffffffffffffffffffffff1681565b60096020528060005260406000206000915090505481565b600260009054906101000a900473ffffffffffffffffffffffffffffffffffffffff1681565b600160009054906101000a900473ffffffffffffffffffffffffffffffffffffffff1681565b60045481565b6000600c60003373ffffffffffffffffffffffffffffffffffffffff1673ffffffffffffffffffffffffffffffffffffffff16815260200190815260200160002054905060008111610dd1576040517f08c379a0000000000000000000000000000000000000000000000000000000008152600401610dc890611f91565b60405180910390fd5b6000600c60003373ffffffffffffffffffffffffffffffffffffffff1673ffffffffffffffffffffffffffffffffffffffff16815260200190815260200160002081905550600160009054906101000a900473ffffffffffffffffffffffffffffffffffffffff1673ffffffffffffffffffffffffffffffffffffffff1663a9059cbb33836040518363ffffffff1660e01b8152600401610e73929190611fb1565b6020604051808303816000875af1158015610e92573d6000803e3d6000fd5b505050506040513d601f19601f82011682018060405250810190610eb69190611fef565b610ef5576040517f08c379a0000000000000000000000000000000000000000000000000000000008152600401610eec90612068565b60405180910390fd5b50565b6000600580549050905090565b610f0d611075565b600073ffffffffffffffffffffffffffffffffffffffff168173ffffffffffffffffffffffffffffffffffffffff1603610f7f5760006040517f1e4fbdf7000000000000000000000000000000000000000000000000000000008152600401610f769190611613565b60405180910390fd5b610f8881611400565b50565b600360009054906101000a900473ffffffffffffffffffffffffffffffffffffffff1673ffffffffffffffffffffffffffffffffffffffff163373ffffffffffffffffffffffffffffffffffffffff161461101b576040517f08c379a000000000000000000000000000000000000000000000000000000000815260040161101290611aaf565b60405180910390fd5b80600c60008473ffffffffffffffffffffffffffffffffffffffff1673ffffffffffffffffffffffffffffffffffffffff168152602001908152602001600020600082825461106a9190611afe565b925050819055505050565b61107d6114c4565b73ffffffffffffffffffffffffffffffffffffffff1661109b610c78565b73ffffffffffffffffffffffffffffffffffffffff16146110fa576110be6114c4565b6040517f118cdaa70000000000000000000000000000000000000000000000000000000081526004016110f19190611613565b60405180910390fd5b565b600080600090505b600580549050811015611199578273ffffffffffffffffffffffffffffffffffffffff166005828154811061113c5761113b611e18565b5b9060005260206000200160009054906101000a900473ffffffffffffffffffffffffffffffffffffffff1673ffffffffffffffffffffffffffffffffffffffff160361118c57600191505061119f565b8080600101915050611104565b50600090505b919050565b6000600160009054906101000a900473ffffffffffffffffffffffffffffffffffffffff1673ffffffffffffffffffffffffffffffffffffffff166370a08231306040518263ffffffff1660e01b81526004016112019190611613565b602060405180830381865afa15801561121e573d6000803e3d6000fd5b505050506040513d601f19601f82011682018060405250810190611242919061209d565b905060005b600b805490508110156113e1576000600b828154811061126a57611269611e18565b5b9060005260206000200160009054906101000a900473ffffffffffffffffffffffffffffffffffffffff1690506000600a5484600960008573ffffffffffffffffffffffffffffffffffffffff1673ffffffffffffffffffffffffffffffffffffffff168152602001908152602001600020546112e79190611b32565b6112f19190611ba3565b9050600160009054906101000a900473ffffffffffffffffffffffffffffffffffffffff1673ffffffffffffffffffffffffffffffffffffffff1663a9059cbb83836040518363ffffffff1660e01b8152600401611350929190611fb1565b6020604051808303816000875af115801561136f573d6000803e3d6000fd5b505050506040513d601f19601f820116820180604052508101906113939190611fef565b6113d2576040517f08c379a00000000000000000000000000000000000000000000000000000000081526004016113c990612116565b60405180910390fd5b50508080600101915050611247565b506000600860006101000a81548160ff02191690831515021790555050565b60008060009054906101000a900473ffffffffffffffffffffffffffffffffffffffff169050816000806101000a81548173ffffffffffffffffffffffffffffffffffffffff021916908373ffffffffffffffffffffffffffffffffffffffff1602179055508173ffffffffffffffffffffffffffffffffffffffff168173ffffffffffffffffffffffffffffffffffffffff167f8be0079c531659141344cd1fd0a4f28419497f9722a3daafe3b4186f6b6457e060405160405180910390a35050565b600033905090565b6000604051905090565b600080fd5b600080fd5b600073ffffffffffffffffffffffffffffffffffffffff82169050919050565b600061150b826114e0565b9050919050565b61151b81611500565b811461152657600080fd5b50565b60008135905061153881611512565b92915050565b600060208284031215611554576115536114d6565b5b600061156284828501611529565b91505092915050565b60008115159050919050565b6115808161156b565b82525050565b600060208201905061159b6000830184611577565b92915050565b6000819050919050565b6115b4816115a1565b81146115bf57600080fd5b50565b6000813590506115d1816115ab565b92915050565b6000602082840312156115ed576115ec6114d6565b5b60006115fb848285016115c2565b91505092915050565b61160d81611500565b82525050565b60006020820190506116286000830184611604565b92915050565b6116378161156b565b811461164257600080fd5b50565b6000813590506116548161162e565b92915050565b600080600060608486031215611673576116726114d6565b5b6000611681868287016115c2565b935050602061169286828701611645565b92505060406116a386828701611529565b9150509250925092565b6116b6816115a1565b82525050565b60006020820190506116d160008301846116ad565b92915050565b6000602082840312156116ed576116ec6114d6565b5b60006116fb84828501611645565b91505092915050565b600080fd5b6000601f19601f8301169050919050565b7f4e487b7100000000000000000000000000000000000000000000000000000000600052604160045260246000fd5b61175282611709565b810181811067ffffffffffffffff821117156117715761177061171a565b5b80604052505050565b60006117846114cc565b90506117908282611749565b919050565b600067ffffffffffffffff8211156117b0576117af61171a565b5b602082029050602081019050919050565b600080fd5b60006117d96117d484611795565b61177a565b905080838252602082019050602084028301858111156117fc576117fb6117c1565b5b835b8181101561182557806118118882611529565b8452602084019350506020810190506117fe565b5050509392505050565b600082601f83011261184457611843611704565b5b81356118548482602086016117c6565b91505092915050565b600067ffffffffffffffff8211156118785761187761171a565b5b602082029050602081019050919050565b600061189c6118978461185d565b61177a565b905080838252602082019050602084028301858111156118bf576118be6117c1565b5b835b818110156118e857806118d488826115c2565b8452602084019350506020810190506118c1565b5050509392505050565b600082601f83011261190757611906611704565b5b8135611917848260208601611889565b91505092915050565b60008060408385031215611937576119366114d6565b5b600083013567ffffffffffffffff811115611955576119546114db565b5b6119618582860161182f565b925050602083013567ffffffffffffffff811115611982576119816114db565b5b61198e858286016118f2565b9150509250929050565b6000819050919050565b60006119bd6119b86119b3846114e0565b611998565b6114e0565b9050919050565b60006119cf826119a2565b9050919050565b60006119e1826119c4565b9050919050565b6119f1816119d6565b82525050565b6000602082019050611a0c60008301846119e8565b92915050565b60008060408385031215611a2957611a286114d6565b5b6000611a3785828601611529565b9250506020611a48858286016115c2565b9150509250929050565b600082825260208201905092915050565b7f4e6565642043616c6c6572204d756c7469506f6f6c0000000000000000000000600082015250565b6000611a99601583611a52565b9150611aa482611a63565b602082019050919050565b60006020820190508181036000830152611ac881611a8c565b9050919050565b7f4e487b7100000000000000000000000000000000000000000000000000000000600052601160045260246000fd5b6000611b09826115a1565b9150611b14836115a1565b9250828201905080821115611b2c57611b2b611acf565b5b92915050565b6000611b3d826115a1565b9150611b48836115a1565b9250828202611b56816115a1565b91508282048414831517611b6d57611b6c611acf565b5b5092915050565b7f4e487b7100000000000000000000000000000000000000000000000000000000600052601260045260246000fd5b6000611bae826115a1565b9150611bb9836115a1565b925082611bc957611bc8611b74565b5b828204905092915050565b7f4e6f2068617920766f746163696f6e2061637469766100000000000000000000600082015250565b6000611c0a601683611a52565b9150611c1582611bd4565b602082019050919050565b60006020820190508181036000830152611c3981611bfd565b9050919050565b7f59612068617320766f7461646f00000000000000000000000000000000000000600082015250565b6000611c76600d83611a52565b9150611c8182611c40565b602082019050919050565b60006020820190508181036000830152611ca581611c69565b9050919050565b7f4e6f20657374617320656e206c61206c69737461206465206c6f73207072696d60008201527f65726f7320696e766572736f7265730000000000000000000000000000000000602082015250565b6000611d08602f83611a52565b9150611d1382611cac565b604082019050919050565b60006020820190508181036000830152611d3781611cfb565b9050919050565b6000611d49826115a1565b91507fffffffffffffffffffffffffffffffffffffffffffffffffffffffffffffffff8203611d7b57611d7a611acf565b5b600182019050919050565b7f496e636f6e73697374656e63696120656e206461746f7320646520726566657260008201527f69646f7300000000000000000000000000000000000000000000000000000000602082015250565b6000611de2602483611a52565b9150611ded82611d86565b604082019050919050565b60006020820190508181036000830152611e1181611dd5565b9050919050565b7f4e487b7100000000000000000000000000000000000000000000000000000000600052603260045260246000fd5b7f4e656365736974616d6f7320616c206d656e6f7320323020696e766572736f7260008201527f6573207061726120696e696369617220756e6120766f746163696f6e00000000602082015250565b6000611ea3603c83611a52565b9150611eae82611e47565b604082019050919050565b60006020820190508181036000830152611ed281611e96565b9050919050565b7f59612068617920756e6120766f746163696f6e20656e2070726f677265736f00600082015250565b6000611f0f601f83611a52565b9150611f1a82611ed9565b602082019050919050565b60006020820190508181036000830152611f3e81611f02565b9050919050565b7f4e6f207469656e657320666f6e646f732070617261207265636c616d61720000600082015250565b6000611f7b601e83611a52565b9150611f8682611f45565b602082019050919050565b60006020820190508181036000830152611faa81611f6e565b9050919050565b6000604082019050611fc66000830185611604565b611fd360208301846116ad565b9392505050565b600081519050611fe98161162e565b92915050565b600060208284031215612005576120046114d6565b5b600061201384828501611fda565b91505092915050565b7f5472616e73666572656e6369612066616c6c6964610000000000000000000000600082015250565b6000612052601583611a52565b915061205d8261201c565b602082019050919050565b6000602082019050818103600083015261208181612045565b9050919050565b600081519050612097816115ab565b92915050565b6000602082840312156120b3576120b26114d6565b5b60006120c184828501612088565b91505092915050565b7f5061676f2064656c206578636564656e74652066616c6c69646f000000000000600082015250565b6000612100601a83611a52565b915061210b826120ca565b602082019050919050565b6000602082019050818103600083015261212f816120f3565b905091905056fea26469706673582212209b2808ad82f469dace341de010f0753fabc453c14f114742a1fda6584a4351ae64736f6c63430008180033",
  "linkReferences": {},
  "deployedLinkReferences": {}
}