{
  "_format": "hh-sol-artifact-1",
  "contractName": "multiPoolV4",
  "sourceName": "contracts/multiPoolV4.sol",
  "abi": [
    {
      "inputs": [
        {
          "internalType": "address",
          "name": "_usdtAddress",
          "type": "address"
        },
        {
          "internalType": "address",
          "name": "_paymentContractAddress",
          "type": "address"
        }
      ],
      "stateMutability": "nonpayable",
      "type": "constructor"
    },
    {
      "inputs": [],
      "name": "USDT",
      "outputs": [
        {
          "internalType": "contract IERC20",
          "name": "",
          "type": "address"
        }
      ],
      "stateMutability": "view",
      "type": "function"
    },
    {
      "inputs": [
        {
          "internalType": "address",
          "name": "",
          "type": "address"
        },
        {
          "internalType": "uint256",
          "name": "",
          "type": "uint256"
        }
      ],
      "name": "amountInvestInLevels",
      "outputs": [
        {
          "internalType": "uint256",
          "name": "",
          "type": "uint256"
        }
      ],
      "stateMutability": "view",
      "type": "function"
    },
    {
      "inputs": [
        {
          "internalType": "address",
          "name": "",
          "type": "address"
        },
        {
          "internalType": "address",
          "name": "",
          "type": "address"
        }
      ],
      "name": "amountInvestInLevelsPerWallet",
      "outputs": [
        {
          "internalType": "uint256",
          "name": "",
          "type": "uint256"
        }
      ],
      "stateMutability": "view",
      "type": "function"
    },
    {
      "inputs": [
        {
          "internalType": "address",
          "name": "userAddress",
          "type": "address"
        }
      ],
      "name": "getInfoUser",
      "outputs": [
        {
          "internalType": "address",
          "name": "",
          "type": "address"
        },
        {
          "internalType": "uint256",
          "name": "",
          "type": "uint256"
        },
        {
          "internalType": "uint256",
          "name": "",
          "type": "uint256"
        }
      ],
      "stateMutability": "view",
      "type": "function"
    },
    {
      "inputs": [
        {
          "internalType": "address",
          "name": "userAddress",
          "type": "address"
        }
      ],
      "name": "getPurchases",
      "outputs": [
        {
          "components": [
            {
              "internalType": "uint256",
              "name": "poolId",
              "type": "uint256"
            },
            {
              "internalType": "uint256",
              "name": "position",
              "type": "uint256"
            },
            {
              "internalType": "bool",
              "name": "hasPassed",
              "type": "bool"
            },
            {
              "internalType": "bool",
              "name": "startedInThisPool",
              "type": "bool"
            },
            {
              "internalType": "bool",
              "name": "canContribute",
              "type": "bool"
            }
          ],
          "internalType": "struct multiPoolV4.Purchase[]",
          "name": "",
          "type": "tuple[]"
        }
      ],
      "stateMutability": "view",
      "type": "function"
    },
    {
      "inputs": [
        {
          "internalType": "uint256",
          "name": "poolId",
          "type": "uint256"
        }
      ],
      "name": "getQueue",
      "outputs": [
        {
          "internalType": "address[]",
          "name": "",
          "type": "address[]"
        }
      ],
      "stateMutability": "view",
      "type": "function"
    },
    {
      "inputs": [
        {
          "internalType": "address",
          "name": "user",
          "type": "address"
        }
      ],
      "name": "getReferralCountsByLevel",
      "outputs": [
        {
          "internalType": "uint256[]",
          "name": "",
          "type": "uint256[]"
        }
      ],
      "stateMutability": "view",
      "type": "function"
    },
    {
      "inputs": [
        {
          "internalType": "uint256",
          "name": "poolId",
          "type": "uint256"
        },
        {
          "internalType": "address",
          "name": "referrer",
          "type": "address"
        },
        {
          "internalType": "address",
          "name": "wallet",
          "type": "address"
        }
      ],
      "name": "joinPool",
      "outputs": [],
      "stateMutability": "nonpayable",
      "type": "function"
    },
    {
      "inputs": [
        {
          "internalType": "uint256",
          "name": "",
          "type": "uint256"
        }
      ],
      "name": "levels",
      "outputs": [
        {
          "internalType": "uint256",
          "name": "percentage",
          "type": "uint256"
        }
      ],
      "stateMutability": "view",
      "type": "function"
    },
    {
      "inputs": [],
      "name": "networkFeePercentage",
      "outputs": [
        {
          "internalType": "uint256",
          "name": "",
          "type": "uint256"
        }
      ],
      "stateMutability": "view",
      "type": "function"
    },
    {
      "inputs": [
        {
          "internalType": "uint256",
          "name": "",
          "type": "uint256"
        }
      ],
      "name": "payForExtraInPools",
      "outputs": [
        {
          "internalType": "uint256",
          "name": "",
          "type": "uint256"
        }
      ],
      "stateMutability": "view",
      "type": "function"
    },
    {
      "inputs": [],
      "name": "paymentContract",
      "outputs": [
        {
          "internalType": "contract PaymentContract",
          "name": "",
          "type": "address"
        }
      ],
      "stateMutability": "view",
      "type": "function"
    },
    {
      "inputs": [
        {
          "internalType": "uint256",
          "name": "",
          "type": "uint256"
        }
      ],
      "name": "pools",
      "outputs": [
        {
          "internalType": "uint256",
          "name": "price",
          "type": "uint256"
        },
        {
          "internalType": "uint256",
          "name": "numUsers",
          "type": "uint256"
        }
      ],
      "stateMutability": "view",
      "type": "function"
    },
    {
      "inputs": [],
      "name": "projectFeePercentage",
      "outputs": [
        {
          "internalType": "uint256",
          "name": "",
          "type": "uint256"
        }
      ],
      "stateMutability": "view",
      "type": "function"
    },
    {
      "inputs": [],
      "name": "projectWallet",
      "outputs": [
        {
          "internalType": "address",
          "name": "",
          "type": "address"
        }
      ],
      "stateMutability": "view",
      "type": "function"
    },
    {
      "inputs": [
        {
          "internalType": "address",
          "name": "",
          "type": "address"
        },
        {
          "internalType": "uint256",
          "name": "",
          "type": "uint256"
        }
      ],
      "name": "referralsByLevel",
      "outputs": [
        {
          "internalType": "uint256",
          "name": "",
          "type": "uint256"
        }
      ],
      "stateMutability": "view",
      "type": "function"
    },
    {
      "inputs": [],
      "name": "totalDistributed",
      "outputs": [
        {
          "internalType": "uint256",
          "name": "",
          "type": "uint256"
        }
      ],
      "stateMutability": "view",
      "type": "function"
    },
    {
      "inputs": [],
      "name": "totalExtra",
      "outputs": [
        {
          "internalType": "uint256",
          "name": "",
          "type": "uint256"
        }
      ],
      "stateMutability": "view",
      "type": "function"
    },
    {
      "inputs": [],
      "name": "totalPayed",
      "outputs": [
        {
          "internalType": "uint256",
          "name": "",
          "type": "uint256"
        }
      ],
      "stateMutability": "view",
      "type": "function"
    },
    {
      "inputs": [
        {
          "internalType": "address",
          "name": "",
          "type": "address"
        }
      ],
      "name": "users",
      "outputs": [
        {
          "internalType": "address",
          "name": "referrer",
          "type": "address"
        },
        {
          "internalType": "uint256",
          "name": "directReferrals",
          "type": "uint256"
        },
        {
          "internalType": "uint256",
          "name": "missedOpportunities",
          "type": "uint256"
        },
        {
          "internalType": "uint256",
          "name": "payedExtra",
          "type": "uint256"
        },
        {
          "internalType": "uint256",
          "name": "totalTree",
          "type": "uint256"
        }
      ],
      "stateMutability": "view",
      "type": "function"
    }
  ],
  "bytecode": "0x6080604052600a60075560146008553480156200001b57600080fd5b50604051620042973803806200429783398181016040528101906200004191906200054c565b816000806101000a81548173ffffffffffffffffffffffffffffffffffffffff021916908373ffffffffffffffffffffffffffffffffffffffff16021790555080600160006101000a81548173ffffffffffffffffffffffffffffffffffffffff021916908373ffffffffffffffffffffffffffffffffffffffff1602179055506302faf0806003600060018152602001908152602001600020600001819055506305f5e100600360006002815260200190815260200160002060000181905550630bebc2006003600060038152602001908152602001600020600001819055506311e1a3006003600060048152602001908152602001600020600001819055506317d78400600360006005815260200190815260200160002060000181905550631dcd6500600360006006815260200190815260200160002060000181905550633b9aca0060036000600781526020019081526020016000206000018190555060046040518060200160405280600a815250908060018154018082558091505060019003906000526020600020016000909190919091506000820151816000015550506004604051806020016040528060038152509080600181540180825580915050600190039060005260206000200160009091909190915060008201518160000155505060046040518060200160405280600281525090806001815401808255809150506001900390600052602060002001600090919091909150600082015181600001555050600460405180602001604052806001815250908060018154018082558091505060019003906000526020600020016000909190919091506000820151816000015550506004604051806020016040528060018152509080600181540180825580915050600190039060005260206000200160009091909190915060008201518160000155505060046040518060200160405280600181525090806001815401808255809150506001900390600052602060002001600090919091909150600082015181600001555050600460405180602001604052806002815250908060018154018082558091505060019003906000526020600020016000909190919091506000820151816000015550506005600090806001815401808255809150506001900390600052602060002001600090919091909150556005624c4b409080600181540180825580915050600190039060005260206000200160009091909190915055600562989680908060018154018082558091505060019003906000526020600020016000909190919091505560056307270e0090806001815401808255809150506001900390600052602060002001600090919091909150556005630db5858090806001815401808255809150506001900390600052602060002001600090919091909150556005631443fd00908060018154018082558091505060019003906000526020600020016000909190919091505560056302faf08090806001815401808255809150506001900390600052602060002001600090919091909150556005635f5e10009080600181540180825580915050600190039060005260206000200160009091909190915055505062000593565b600080fd5b600073ffffffffffffffffffffffffffffffffffffffff82169050919050565b60006200051482620004e7565b9050919050565b620005268162000507565b81146200053257600080fd5b50565b60008151905062000546816200051b565b92915050565b60008060408385031215620005665762000565620004e2565b5b6000620005768582860162000535565b9250506020620005898582860162000535565b9150509250929050565b613cf480620005a36000396000f3fe608060405234801561001057600080fd5b506004361061012c5760003560e01c8063ac4afa38116100ad578063c54e44eb11610071578063c54e44eb1461039a578063cbf4b23b146103b8578063eb70eaca146103d6578063eea3b92114610406578063efca2eed146104365761012c565b8063ac4afa38146102cd578063b2596a67146102fe578063bc5791031461032e578063beb08ab91461034c578063bfe7145c1461036a5761012c565b8063843fa808116100f4578063843fa8081461020f57806393f7d5cf1461022b578063994523931461025d5780639c91dd561461027b578063a87430ba146102995761012c565b80630be8fffc146101315780632e998d5d14610161578063405cb7691461019157806370cd5a80146101c15780637c326542146101f1575b600080fd5b61014b60048036038101906101469190612ea6565b610454565b6040516101589190612fc3565b60405180910390f35b61017b60048036038101906101769190613011565b610549565b6040516101889190613060565b60405180910390f35b6101ab60048036038101906101a6919061307b565b61056e565b6040516101b89190613166565b60405180910390f35b6101db60048036038101906101d6919061307b565b61074d565b6040516101e891906132ba565b60405180910390f35b6101f9610853565b6040516102069190613060565b60405180910390f35b610229600480360381019061022491906132dc565b610859565b005b6102456004803603810190610240919061307b565b610e51565b6040516102549392919061333e565b60405180910390f35b610265610f4c565b6040516102729190613060565b60405180910390f35b610283610f52565b60405161029091906133d4565b60405180910390f35b6102b360048036038101906102ae919061307b565b610f78565b6040516102c49594939291906133ef565b60405180910390f35b6102e760048036038101906102e29190612ea6565b610fce565b6040516102f5929190613442565b60405180910390f35b61031860048036038101906103139190612ea6565b610ff2565b6040516103259190613060565b60405180910390f35b61033661101c565b6040516103439190613060565b60405180910390f35b610354611022565b604051610361919061346b565b60405180910390f35b610384600480360381019061037f9190612ea6565b611048565b6040516103919190613060565b60405180910390f35b6103a261106c565b6040516103af91906134a7565b60405180910390f35b6103c0611090565b6040516103cd9190613060565b60405180910390f35b6103f060048036038101906103eb91906134c2565b611096565b6040516103fd9190613060565b60405180910390f35b610420600480360381019061041b9190613011565b6110bb565b60405161042d9190613060565b60405180910390f35b61043e6110e0565b60405161044b9190613060565b60405180910390f35b606060018210158015610468575060078211155b6104a7576040517f08c379a000000000000000000000000000000000000000000000000000000000815260040161049e9061355f565b60405180910390fd5b6003600083815260200190815260200160002060020180548060200260200160405190810160405280929190818152602001828054801561053d57602002820191906000526020600020905b8160009054906101000a900473ffffffffffffffffffffffffffffffffffffffff1673ffffffffffffffffffffffffffffffffffffffff16815260200190600101908083116104f3575b50505050509050919050565b600d602052816000526040600020602052806000526040600020600091509150505481565b6060600060048054905067ffffffffffffffff8111156105915761059061357f565b5b6040519080825280602002602001820160405280156105bf5781602001602082028036833780820191505090505b5090506000600260008573ffffffffffffffffffffffffffffffffffffffff1673ffffffffffffffffffffffffffffffffffffffff16815260200190815260200160002060010160009054906101000a900473ffffffffffffffffffffffffffffffffffffffff16905060005b60048054905081101561074257600073ffffffffffffffffffffffffffffffffffffffff168273ffffffffffffffffffffffffffffffffffffffff16031561074257600260008373ffffffffffffffffffffffffffffffffffffffff1673ffffffffffffffffffffffffffffffffffffffff168152602001908152602001600020600201548382815181106106c4576106c36135ae565b5b602002602001018181525050600260008373ffffffffffffffffffffffffffffffffffffffff1673ffffffffffffffffffffffffffffffffffffffff16815260200190815260200160002060010160009054906101000a900473ffffffffffffffffffffffffffffffffffffffff169150808060010191505061062c565b508192505050919050565b6060600260008373ffffffffffffffffffffffffffffffffffffffff1673ffffffffffffffffffffffffffffffffffffffff168152602001908152602001600020600001805480602002602001604051908101604052809291908181526020016000905b8282101561084857838290600052602060002090600302016040518060a001604052908160008201548152602001600182015481526020016002820160009054906101000a900460ff161515151581526020016002820160019054906101000a900460ff161515151581526020016002820160029054906101000a900460ff161515151581525050815260200190600101906107b1565b505050509050919050565b60085481565b6001831015801561086b575060078311155b6108aa576040517f08c379a00000000000000000000000000000000000000000000000000000000081526004016108a190613629565b60405180910390fd5b3373ffffffffffffffffffffffffffffffffffffffff168273ffffffffffffffffffffffffffffffffffffffff1603610918576040517f08c379a000000000000000000000000000000000000000000000000000000000815260040161090f906136bb565b60405180910390fd5b6000600260008373ffffffffffffffffffffffffffffffffffffffff1673ffffffffffffffffffffffffffffffffffffffff16815260200190815260200160002090506000600360008681526020019081526020016000206001015490506000826000018054905003610a5657838260010160006101000a81548173ffffffffffffffffffffffffffffffffffffffff021916908373ffffffffffffffffffffffffffffffffffffffff160217905550600073ffffffffffffffffffffffffffffffffffffffff168473ffffffffffffffffffffffffffffffffffffffff1614610a5557600260008573ffffffffffffffffffffffffffffffffffffffff1673ffffffffffffffffffffffffffffffffffffffff1681526020019081526020016000206002016000815480929190610a4f9061370a565b91905055505b5b3073ffffffffffffffffffffffffffffffffffffffff168373ffffffffffffffffffffffffffffffffffffffff1614610ba15760008054906101000a900473ffffffffffffffffffffffffffffffffffffffff1673ffffffffffffffffffffffffffffffffffffffff166323b872dd84600160009054906101000a900473ffffffffffffffffffffffffffffffffffffffff16600360008a8152602001908152602001600020600001546040518463ffffffff1660e01b8152600401610b1e93929190613752565b6020604051808303816000875af1158015610b3d573d6000803e3d6000fd5b505050506040513d601f19601f82011682018060405250810190610b6191906137b5565b610ba0576040517f08c379a0000000000000000000000000000000000000000000000000000000008152600401610b979061382e565b60405180910390fd5b5b600360008681526020019081526020016000206000015460096000828254610bc9919061384e565b925050819055506000600360008781526020019081526020016000206000015490506000606460075483610bfd9190613882565b610c0791906138f3565b9050600160009054906101000a900473ffffffffffffffffffffffffffffffffffffffff1673ffffffffffffffffffffffffffffffffffffffff1663210d0f1d600360008a8152602001908152602001600020600001546001336040518463ffffffff1660e01b8152600401610c7f93929190613933565b600060405180830381600087803b158015610c9957600080fd5b505af1158015610cad573d6000803e3d6000fd5b50505050836000016040518060a0016040528089815260200185815260200160001515815260200160058a101515158152602001600115158152509080600181540180825580915050600190039060005260206000209060030201600090919091909150600082015181600001556020820151816001015560408201518160020160006101000a81548160ff02191690831515021790555060608201518160020160016101000a81548160ff02191690831515021790555060808201518160020160026101000a81548160ff021916908315150217905550505060036000888152602001908152602001600020600201859080600181540180825580915050600190039060005260206000200160009091909190916101000a81548173ffffffffffffffffffffffffffffffffffffffff021916908373ffffffffffffffffffffffffffffffffffffffff160217905550600360008881526020019081526020016000206001016000815480929190610e259061370a565b9190505550610e3485886110e6565b60038310610e4857610e478760006117a6565b5b50505050505050565b6000806000600260008573ffffffffffffffffffffffffffffffffffffffff1673ffffffffffffffffffffffffffffffffffffffff16815260200190815260200160002060010160009054906101000a900473ffffffffffffffffffffffffffffffffffffffff16600260008673ffffffffffffffffffffffffffffffffffffffff1673ffffffffffffffffffffffffffffffffffffffff16815260200190815260200160002060020154600260008773ffffffffffffffffffffffffffffffffffffffff1673ffffffffffffffffffffffffffffffffffffffff168152602001908152602001600020600301549250925092509193909250565b600b5481565b600160009054906101000a900473ffffffffffffffffffffffffffffffffffffffff1681565b60026020528060005260406000206000915090508060010160009054906101000a900473ffffffffffffffffffffffffffffffffffffffff16908060020154908060030154908060040154908060050154905085565b60036020528060005260406000206000915090508060000154908060010154905082565b6004818154811061100257600080fd5b906000526020600020016000915090508060000154905081565b60095481565b600660009054906101000a900473ffffffffffffffffffffffffffffffffffffffff1681565b6005818154811061105857600080fd5b906000526020600020016000915090505481565b60008054906101000a900473ffffffffffffffffffffffffffffffffffffffff1681565b60075481565b600e602052816000526040600020602052806000526040600020600091509150505481565b600c602052816000526040600020602052806000526040600020600091509150505481565b600a5481565b6000600260008473ffffffffffffffffffffffffffffffffffffffff1673ffffffffffffffffffffffffffffffffffffffff16815260200190815260200160002060010160009054906101000a900473ffffffffffffffffffffffffffffffffffffffff169050600060048054905067ffffffffffffffff81111561116e5761116d61357f565b5b60405190808252806020026020018201604052801561119c5781602001602082028036833780820191505090505b509050600060048054905067ffffffffffffffff8111156111c0576111bf61357f565b5b6040519080825280602002602001820160405280156111ee5781602001602082028036833780820191505090505b5090506000805b600480549050811080156112365750600073ffffffffffffffffffffffffffffffffffffffff168573ffffffffffffffffffffffffffffffffffffffff1614155b1561170e57600073ffffffffffffffffffffffffffffffffffffffff168573ffffffffffffffffffffffffffffffffffffffff16031561170e576000606460048381548110611288576112876135ae565b5b9060005260206000200160000154600360008a8152602001908152602001600020600001546112b79190613882565b6112c191906138f3565b9050858584815181106112d7576112d66135ae565b5b602002602001019073ffffffffffffffffffffffffffffffffffffffff16908173ffffffffffffffffffffffffffffffffffffffff168152505080848481518110611325576113246135ae565b5b602002602001018181525050828061133c9061370a565b93505080600a6000828254611351919061384e565b9250508190555080600260008873ffffffffffffffffffffffffffffffffffffffff1673ffffffffffffffffffffffffffffffffffffffff16815260200190815260200160002060050160008282546113aa919061384e565b925050819055506000600e60008873ffffffffffffffffffffffffffffffffffffffff1673ffffffffffffffffffffffffffffffffffffffff16815260200190815260200160002060008a73ffffffffffffffffffffffffffffffffffffffff1673ffffffffffffffffffffffffffffffffffffffff168152602001908152602001600020540361159a5780600e60008873ffffffffffffffffffffffffffffffffffffffff1673ffffffffffffffffffffffffffffffffffffffff16815260200190815260200160002060008a73ffffffffffffffffffffffffffffffffffffffff1673ffffffffffffffffffffffffffffffffffffffff16815260200190815260200160002060008282546114c1919061384e565b9250508190555080600d60008873ffffffffffffffffffffffffffffffffffffffff1673ffffffffffffffffffffffffffffffffffffffff16815260200190815260200160002060008481526020019081526020016000206000828254611528919061384e565b92505081905550600c60008773ffffffffffffffffffffffffffffffffffffffff1673ffffffffffffffffffffffffffffffffffffffff168152602001908152602001600020600083815260200190815260200160002060008154809291906115909061370a565b9190505550611695565b80600e60008873ffffffffffffffffffffffffffffffffffffffff1673ffffffffffffffffffffffffffffffffffffffff16815260200190815260200160002060008a73ffffffffffffffffffffffffffffffffffffffff1673ffffffffffffffffffffffffffffffffffffffff1681526020019081526020016000206000828254611626919061384e565b9250508190555080600d60008873ffffffffffffffffffffffffffffffffffffffff1673ffffffffffffffffffffffffffffffffffffffff1681526020019081526020016000206000848152602001908152602001600020600082825461168d919061384e565b925050819055505b600260008773ffffffffffffffffffffffffffffffffffffffff1673ffffffffffffffffffffffffffffffffffffffff16815260200190815260200160002060010160009054906101000a900473ffffffffffffffffffffffffffffffffffffffff1695505080806117069061370a565b9150506111f5565b50600160009054906101000a900473ffffffffffffffffffffffffffffffffffffffff1673ffffffffffffffffffffffffffffffffffffffff166350f1bfc884846040518363ffffffff1660e01b815260040161176c92919061396a565b600060405180830381600087803b15801561178657600080fd5b505af115801561179a573d6000803e3d6000fd5b50505050505050505050565b600182101580156117b8575060078211155b6117f7576040517f08c379a00000000000000000000000000000000000000000000000000000000081526004016117ee90613629565b60405180910390fd5b6003600083815260200190815260200160002060010154811061184f576040517f08c379a0000000000000000000000000000000000000000000000000000000008152600401611846906139ed565b60405180910390fd5b6000600360008481526020019081526020016000206002018281548110611879576118786135ae565b5b9060005260206000200160009054906101000a900473ffffffffffffffffffffffffffffffffffffffff1690506000600260008373ffffffffffffffffffffffffffffffffffffffff1673ffffffffffffffffffffffffffffffffffffffff168152602001908152602001600020905060006118f6828686611b68565b9050600061190386611c5c565b905080836002015410158061192657508160020160019054906101000a900460ff165b801561193857506119378686611cce565b5b156119aa57611948848787612164565b6000600290505b600781116119a45760005b6003600083815260200190815260200160002060010154811015611990576119838260006117a6565b808060010191505061195a565b50808061199c9061370a565b91505061194f565b50611b60565b8260030160008154809291906119bf9061370a565b919050555060006001866119d3919061384e565b90505b6003600088815260200190815260200160002060010154811015611b5e576000600360008981526020019081526020016000206002018281548110611a1e57611a1d6135ae565b5b9060005260206000200160009054906101000a900473ffffffffffffffffffffffffffffffffffffffff1690506000600260008373ffffffffffffffffffffffffffffffffffffffff1673ffffffffffffffffffffffffffffffffffffffff1681526020019081526020016000209050838160020154101580611aaf57508460020160019054906101000a900460ff165b8015611ac15750611ac08989611cce565b5b15611b3557611ad1828a85612164565b6000600290505b60078111611b2d5760005b6003600083815260200190815260200160002060010154811015611b1957611b0c8260006117a6565b8080600101915050611ae3565b508080611b259061370a565b915050611ad8565b505050611b5e565b806003016000815480929190611b4a9061370a565b9190505550505080806001019150506119d6565b505b505050505050565b600080600090505b8460000180549050811015611c195783856000018281548110611b9657611b956135ae565b5b906000526020600020906003020160000154148015611bdb575082856000018281548110611bc757611bc66135ae565b5b906000526020600020906003020160010154145b15611c0c57846000018181548110611bf657611bf56135ae565b5b9060005260206000209060030201915050611c55565b8080600101915050611b70565b506040517f08c379a0000000000000000000000000000000000000000000000000000000008152600401611c4c90613a59565b60405180910390fd5b9392505050565b600060018203611c6f5760009050611cc9565b60028203611c805760019050611cc9565b60038203611c915760029050611cc9565b60048203611ca25760039050611cc9565b60058203611cb35760049050611cc9565b60068203611cc45760059050611cc9565b600090505b919050565b600080600090506000600367ffffffffffffffff811115611cf257611cf161357f565b5b604051908082528060200260200182016040528015611d2b57816020015b611d18612e3b565b815260200190600190039081611d105790505b509050600080600186611d3e919061384e565b90505b600360008881526020019081526020016000206002018054905081108015611d695750600384105b15611f72576000600360008981526020019081526020016000206002018281548110611d9857611d976135ae565b5b9060005260206000200160009054906101000a900473ffffffffffffffffffffffffffffffffffffffff1690506000600260008373ffffffffffffffffffffffffffffffffffffffff1673ffffffffffffffffffffffffffffffffffffffff1681526020019081526020016000209050600080826000018054905090505b6000811115611f4657600083600001600183611e329190613a79565b81548110611e4357611e426135ae565b5b906000526020600020906003020190508b8160000154148015611e7457508060020160029054906101000a900460ff165b15611f32576001925060405180604001604052808673ffffffffffffffffffffffffffffffffffffffff168152602001600184611eb19190613a79565b815250888881518110611ec757611ec66135ae565b5b6020026020010181905250600084600001600184611ee59190613a79565b81548110611ef657611ef56135ae565b5b906000526020600020906003020160020160026101000a81548160ff0219169083151502179055508680611f299061370a565b97505050611f46565b508080611f3e90613aad565b915050611e16565b508015611f5c578680611f589061370a565b9750505b5050508080611f6a9061370a565b915050611d41565b50600383106120465760005b6003811015612040576000838281518110611f9c57611f9b6135ae565b5b60200260200101519050600060026000836000015173ffffffffffffffffffffffffffffffffffffffff1673ffffffffffffffffffffffffffffffffffffffff1681526020019081526020016000209050600081600001836020015181548110612009576120086135ae565b5b906000526020600020906003020160020160026101000a81548160ff02191690831515021790555050508080600101915050611f7e565b50612156565b60005b6003811015612149576000838281518110612067576120666135ae565b5b60200260200101519050600073ffffffffffffffffffffffffffffffffffffffff16816000015173ffffffffffffffffffffffffffffffffffffffff16036120af5750612149565b600060026000836000015173ffffffffffffffffffffffffffffffffffffffff1673ffffffffffffffffffffffffffffffffffffffff1681526020019081526020016000209050600181600001836020015181548110612112576121116135ae565b5b906000526020600020906003020160020160026101000a81548160ff02191690831515021790555050508080600101915050612049565b506000935050505061215e565b600193505050505b92915050565b6000600260008573ffffffffffffffffffffffffffffffffffffffff1673ffffffffffffffffffffffffffffffffffffffff168152602001908152602001600020905060006121b4828585611b68565b905060018160020160006101000a81548160ff02191690831515021790555060006001856121e2919061384e565b90506121ee858561242d565b60008490505b60036000878152602001908152602001600020600201805490508110156122e357600060036000888152602001908152602001600020600201828154811061223f5761223e6135ae565b5b9060005260206000200160009054906101000a900473ffffffffffffffffffffffffffffffffffffffff1690506000600260008373ffffffffffffffffffffffffffffffffffffffff1673ffffffffffffffffffffffffffffffffffffffff168152602001908152602001600020905060006122c8828a6001876122c3919061384e565b611b68565b905083816001018190555050505080806001019150506121f4565b50600160009054906101000a900473ffffffffffffffffffffffffffffffffffffffff1673ffffffffffffffffffffffffffffffffffffffff1663f43de3878760058881548110612337576123366135ae565b5b90600052602060002001546040518363ffffffff1660e01b815260040161235f929190613ad6565b600060405180830381600087803b15801561237957600080fd5b505af115801561238d573d6000803e3d6000fd5b50505050600585815481106123a5576123a46135ae565b5b9060005260206000200154600b60008282546123c1919061384e565b92505081905550600585815481106123dc576123db6135ae565b5b90600052602060002001548360040160008282546123fa919061384e565b925050819055506007850361241a57612415600160036128df565b612425565b6124248187612b20565b5b505050505050565b60036000838152602001908152602001600020600201805490508110612488576040517f08c379a000000000000000000000000000000000000000000000000000000000815260040161247f90613b4b565b60405180910390fd5b60006003600084815260200190815260200160002060020182815481106124b2576124b16135ae565b5b9060005260206000200160009054906101000a900473ffffffffffffffffffffffffffffffffffffffff1690506000600260008373ffffffffffffffffffffffffffffffffffffffff1673ffffffffffffffffffffffffffffffffffffffff168152602001908152602001600020905060005b8160000180549050811015612741578482600001828154811061254b5761254a6135ae565b5b90600052602060002090600302016000015414801561259057508382600001828154811061257c5761257b6135ae565b5b906000526020600020906003020160010154145b156127345760008190505b600183600001805490506125af9190613a79565b8110156126b557826000016001826125c7919061384e565b815481106125d8576125d76135ae565b5b90600052602060002090600302018360000182815481106125fc576125fb6135ae565b5b906000526020600020906003020160008201548160000155600182015481600101556002820160009054906101000a900460ff168160020160006101000a81548160ff0219169083151502179055506002820160019054906101000a900460ff168160020160016101000a81548160ff0219169083151502179055506002820160029054906101000a900460ff168160020160026101000a81548160ff021916908315150217905550905050808060010191505061259b565b50816000018054806126ca576126c9613b6b565b5b600190038181906000526020600020906003020160008082016000905560018201600090556002820160006101000a81549060ff02191690556002820160016101000a81549060ff02191690556002820160026101000a81549060ff021916905550509055612741565b8080600101915050612525565b5060008390505b6001600360008781526020019081526020016000206002018054905061276e9190613a79565b8110156128515760036000868152602001908152602001600020600201600182612798919061384e565b815481106127a9576127a86135ae565b5b9060005260206000200160009054906101000a900473ffffffffffffffffffffffffffffffffffffffff166003600087815260200190815260200160002060020182815481106127fc576127fb6135ae565b5b9060005260206000200160006101000a81548173ffffffffffffffffffffffffffffffffffffffff021916908373ffffffffffffffffffffffffffffffffffffffff1602179055508080600101915050612748565b506003600085815260200190815260200160002060020180548061287857612877613b6b565b5b6001900381819060005260206000200160006101000a81549073ffffffffffffffffffffffffffffffffffffffff021916905590556003600085815260200190815260200160002060010160008154809291906128d490613aad565b919050555050505050565b600182101580156128f1575060078211155b612930576040517f08c379a000000000000000000000000000000000000000000000000000000000815260040161292790613629565b60405180910390fd5b60008111612973576040517f08c379a000000000000000000000000000000000000000000000000000000000815260040161296a90613c0c565b60405180910390fd5b80600360008481526020019081526020016000206001015410156129cc576040517f08c379a00000000000000000000000000000000000000000000000000000000081526004016129c390613c9e565b60405180910390fd5b60005b81811015612abe5760006003600060018152602001908152602001600020600201600081548110612a0357612a026135ae565b5b9060005260206000200160009054906101000a900473ffffffffffffffffffffffffffffffffffffffff1690506000600260008373ffffffffffffffffffffffffffffffffffffffff1673ffffffffffffffffffffffffffffffffffffffff16815260200190815260200160002090506000612a828260016000611b68565b905060018160020160006101000a81548160ff021916908315150217905550612aae8360016000612164565b50505080806001019150506129cf565b506000600290505b60078111612b1b5760005b6003600083815260200190815260200160002060010154811015612b0757612afa8260006117a6565b8080600101915050612ad1565b508080612b139061370a565b915050612ac6565b505050565b60018210158015612b32575060078211155b612b71576040517f08c379a0000000000000000000000000000000000000000000000000000000008152600401612b6890613629565b60405180910390fd5b6000600260008373ffffffffffffffffffffffffffffffffffffffff1673ffffffffffffffffffffffffffffffffffffffff16815260200190815260200160002090506000600360008581526020019081526020016000206001015490506000600360008681526020019081526020016000206000015490506000606460075483612bfc9190613882565b612c0691906138f3565b9050600160009054906101000a900473ffffffffffffffffffffffffffffffffffffffff1673ffffffffffffffffffffffffffffffffffffffff1663210d0f1d60036000898152602001908152602001600020600001546000886040518463ffffffff1660e01b8152600401612c7e93929190613933565b600060405180830381600087803b158015612c9857600080fd5b505af1158015612cac573d6000803e3d6000fd5b50505050836000016040518060a00160405280888152602001858152602001600015158152602001600589101515158152602001600115158152509080600181540180825580915050600190039060005260206000209060030201600090919091909150600082015181600001556020820151816001015560408201518160020160006101000a81548160ff02191690831515021790555060608201518160020160016101000a81548160ff02191690831515021790555060808201518160020160026101000a81548160ff021916908315150217905550505060036000878152602001908152602001600020600201859080600181540180825580915050600190039060005260206000200160009091909190916101000a81548173ffffffffffffffffffffffffffffffffffffffff021916908373ffffffffffffffffffffffffffffffffffffffff160217905550600360008781526020019081526020016000206001016000815480929190612e249061370a565b9190505550612e3385876110e6565b505050505050565b6040518060400160405280600073ffffffffffffffffffffffffffffffffffffffff168152602001600081525090565b600080fd5b6000819050919050565b612e8381612e70565b8114612e8e57600080fd5b50565b600081359050612ea081612e7a565b92915050565b600060208284031215612ebc57612ebb612e6b565b5b6000612eca84828501612e91565b91505092915050565b600081519050919050565b600082825260208201905092915050565b6000819050602082019050919050565b600073ffffffffffffffffffffffffffffffffffffffff82169050919050565b6000612f2a82612eff565b9050919050565b612f3a81612f1f565b82525050565b6000612f4c8383612f31565b60208301905092915050565b6000602082019050919050565b6000612f7082612ed3565b612f7a8185612ede565b9350612f8583612eef565b8060005b83811015612fb6578151612f9d8882612f40565b9750612fa883612f58565b925050600181019050612f89565b5085935050505092915050565b60006020820190508181036000830152612fdd8184612f65565b905092915050565b612fee81612f1f565b8114612ff957600080fd5b50565b60008135905061300b81612fe5565b92915050565b6000806040838503121561302857613027612e6b565b5b600061303685828601612ffc565b925050602061304785828601612e91565b9150509250929050565b61305a81612e70565b82525050565b60006020820190506130756000830184613051565b92915050565b60006020828403121561309157613090612e6b565b5b600061309f84828501612ffc565b91505092915050565b600081519050919050565b600082825260208201905092915050565b6000819050602082019050919050565b6130dd81612e70565b82525050565b60006130ef83836130d4565b60208301905092915050565b6000602082019050919050565b6000613113826130a8565b61311d81856130b3565b9350613128836130c4565b8060005b8381101561315957815161314088826130e3565b975061314b836130fb565b92505060018101905061312c565b5085935050505092915050565b600060208201905081810360008301526131808184613108565b905092915050565b600081519050919050565b600082825260208201905092915050565b6000819050602082019050919050565b60008115159050919050565b6131c9816131b4565b82525050565b60a0820160008201516131e560008501826130d4565b5060208201516131f860208501826130d4565b50604082015161320b60408501826131c0565b50606082015161321e60608501826131c0565b50608082015161323160808501826131c0565b50505050565b600061324383836131cf565b60a08301905092915050565b6000602082019050919050565b600061326782613188565b6132718185613193565b935061327c836131a4565b8060005b838110156132ad5781516132948882613237565b975061329f8361324f565b925050600181019050613280565b5085935050505092915050565b600060208201905081810360008301526132d4818461325c565b905092915050565b6000806000606084860312156132f5576132f4612e6b565b5b600061330386828701612e91565b935050602061331486828701612ffc565b925050604061332586828701612ffc565b9150509250925092565b61333881612f1f565b82525050565b6000606082019050613353600083018661332f565b6133606020830185613051565b61336d6040830184613051565b949350505050565b6000819050919050565b600061339a61339561339084612eff565b613375565b612eff565b9050919050565b60006133ac8261337f565b9050919050565b60006133be826133a1565b9050919050565b6133ce816133b3565b82525050565b60006020820190506133e960008301846133c5565b92915050565b600060a082019050613404600083018861332f565b6134116020830187613051565b61341e6040830186613051565b61342b6060830185613051565b6134386080830184613051565b9695505050505050565b60006040820190506134576000830185613051565b6134646020830184613051565b9392505050565b6000602082019050613480600083018461332f565b92915050565b6000613491826133a1565b9050919050565b6134a181613486565b82525050565b60006020820190506134bc6000830184613498565b92915050565b600080604083850312156134d9576134d8612e6b565b5b60006134e785828601612ffc565b92505060206134f885828601612ffc565b9150509250929050565b600082825260208201905092915050565b7f506f6f6c206e6f2076616c696461000000000000000000000000000000000000600082015250565b6000613549600e83613502565b915061355482613513565b602082019050919050565b600060208201905081810360008301526135788161353c565b9050919050565b7f4e487b7100000000000000000000000000000000000000000000000000000000600052604160045260246000fd5b7f4e487b7100000000000000000000000000000000000000000000000000000000600052603260045260246000fd5b7f506f6f6c206e6f2076616c69646f000000000000000000000000000000000000600082015250565b6000613613600e83613502565b915061361e826135dd565b602082019050919050565b6000602082019050818103600083015261364281613606565b9050919050565b7f4e6f20657320706f7369626c6520717565207365617320656c206d69736d6f2060008201527f73706f6e736f7200000000000000000000000000000000000000000000000000602082015250565b60006136a5602783613502565b91506136b082613649565b604082019050919050565b600060208201905081810360008301526136d481613698565b9050919050565b7f4e487b7100000000000000000000000000000000000000000000000000000000600052601160045260246000fd5b600061371582612e70565b91507fffffffffffffffffffffffffffffffffffffffffffffffffffffffffffffffff8203613747576137466136db565b5b600182019050919050565b6000606082019050613767600083018661332f565b613774602083018561332f565b6137816040830184613051565b949350505050565b613792816131b4565b811461379d57600080fd5b50565b6000815190506137af81613789565b92915050565b6000602082840312156137cb576137ca612e6b565b5b60006137d9848285016137a0565b91505092915050565b7f5472616e73666572656e6369612066616c6c6964610000000000000000000000600082015250565b6000613818601583613502565b9150613823826137e2565b602082019050919050565b600060208201905081810360008301526138478161380b565b9050919050565b600061385982612e70565b915061386483612e70565b925082820190508082111561387c5761387b6136db565b5b92915050565b600061388d82612e70565b915061389883612e70565b92508282026138a681612e70565b915082820484148315176138bd576138bc6136db565b5b5092915050565b7f4e487b7100000000000000000000000000000000000000000000000000000000600052601260045260246000fd5b60006138fe82612e70565b915061390983612e70565b925082613919576139186138c4565b5b828204905092915050565b61392d816131b4565b82525050565b60006060820190506139486000830186613051565b6139556020830185613924565b613962604083018461332f565b949350505050565b600060408201905081810360008301526139848185612f65565b905081810360208301526139988184613108565b90509392505050565b7f506f736963696f6e206e6f2076616c69646120656e20656c20706f6f6c000000600082015250565b60006139d7601d83613502565b91506139e2826139a1565b602082019050919050565b60006020820190508181036000830152613a06816139ca565b9050919050565b7f436f6d707261206e6f20656e636f6e7472616461000000000000000000000000600082015250565b6000613a43601483613502565b9150613a4e82613a0d565b602082019050919050565b60006020820190508181036000830152613a7281613a36565b9050919050565b6000613a8482612e70565b9150613a8f83612e70565b9250828203905081811115613aa757613aa66136db565b5b92915050565b6000613ab882612e70565b915060008203613acb57613aca6136db565b5b600182039050919050565b6000604082019050613aeb600083018561332f565b613af86020830184613051565b9392505050565b7f506f736963696f6e206e6f2076616c6964610000000000000000000000000000600082015250565b6000613b35601283613502565b9150613b4082613aff565b602082019050919050565b60006020820190508181036000830152613b6481613b28565b9050919050565b7f4e487b7100000000000000000000000000000000000000000000000000000000600052603160045260246000fd5b7f506f736963696f6e65732061206d6f76657220646562656e20736572206d617960008201527f6f72206120300000000000000000000000000000000000000000000000000000602082015250565b6000613bf6602683613502565b9150613c0182613b9a565b604082019050919050565b60006020820190508181036000830152613c2581613be9565b9050919050565b7f4e6f2068617920737566696369656e746573207573756172696f7320656e206c60008201527f6120506f6f6c0000000000000000000000000000000000000000000000000000602082015250565b6000613c88602683613502565b9150613c9382613c2c565b604082019050919050565b60006020820190508181036000830152613cb781613c7b565b905091905056fea264697066735822122087a86a2c5fc8b48b08c4d06d9a0019e238a45940b3fdd02f3484b38fdb39b8dc64736f6c63430008180033",
  "linkReferences": {},
  "deployedLinkReferences": {}
}