{
  "_format": "hh-sol-artifact-1",
  "contractName": "multiPoolV3",
  "sourceName": "contracts/multiPoolV3.sol",
  "abi": [
    {
      "inputs": [
        {
          "internalType": "address",
          "name": "_usdtAddress",
          "type": "address"
        },
        {
          "internalType": "address",
          "name": "_projectWallet",
          "type": "address"
        }
      ],
      "stateMutability": "nonpayable",
      "type": "constructor"
    },
    {
      "anonymous": false,
      "inputs": [
        {
          "indexed": true,
          "internalType": "address",
          "name": "user",
          "type": "address"
        },
        {
          "indexed": false,
          "internalType": "uint256",
          "name": "amount",
          "type": "uint256"
        },
        {
          "indexed": false,
          "internalType": "uint256",
          "name": "poolId",
          "type": "uint256"
        },
        {
          "indexed": false,
          "internalType": "uint256",
          "name": "position",
          "type": "uint256"
        }
      ],
      "name": "ExceedingPayment",
      "type": "event"
    },
    {
      "anonymous": false,
      "inputs": [
        {
          "indexed": true,
          "internalType": "address",
          "name": "user",
          "type": "address"
        },
        {
          "indexed": false,
          "internalType": "uint256",
          "name": "poolId",
          "type": "uint256"
        },
        {
          "indexed": false,
          "internalType": "uint256",
          "name": "missedCount",
          "type": "uint256"
        }
      ],
      "name": "MissedOpportunity",
      "type": "event"
    },
    {
      "anonymous": false,
      "inputs": [
        {
          "indexed": true,
          "internalType": "address",
          "name": "user",
          "type": "address"
        },
        {
          "indexed": false,
          "internalType": "uint256",
          "name": "amount",
          "type": "uint256"
        },
        {
          "indexed": false,
          "internalType": "uint256",
          "name": "poolId",
          "type": "uint256"
        },
        {
          "indexed": false,
          "internalType": "uint256",
          "name": "position",
          "type": "uint256"
        }
      ],
      "name": "PaymentDistributed",
      "type": "event"
    },
    {
      "anonymous": false,
      "inputs": [
        {
          "indexed": true,
          "internalType": "address",
          "name": "user",
          "type": "address"
        },
        {
          "indexed": true,
          "internalType": "uint256",
          "name": "fromPool",
          "type": "uint256"
        },
        {
          "indexed": true,
          "internalType": "uint256",
          "name": "toPool",
          "type": "uint256"
        },
        {
          "indexed": false,
          "internalType": "uint256",
          "name": "position",
          "type": "uint256"
        }
      ],
      "name": "PoolAdvanced",
      "type": "event"
    },
    {
      "anonymous": false,
      "inputs": [
        {
          "indexed": true,
          "internalType": "address",
          "name": "user",
          "type": "address"
        },
        {
          "indexed": true,
          "internalType": "uint256",
          "name": "poolId",
          "type": "uint256"
        },
        {
          "indexed": false,
          "internalType": "uint256",
          "name": "position",
          "type": "uint256"
        }
      ],
      "name": "PoolJoined",
      "type": "event"
    },
    {
      "inputs": [],
      "name": "USDT",
      "outputs": [
        {
          "internalType": "contract IERC20",
          "name": "",
          "type": "address"
        }
      ],
      "stateMutability": "view",
      "type": "function"
    },
    {
      "inputs": [
        {
          "internalType": "address",
          "name": "userAddress",
          "type": "address"
        }
      ],
      "name": "getInfoUser",
      "outputs": [
        {
          "internalType": "address",
          "name": "",
          "type": "address"
        },
        {
          "internalType": "uint256",
          "name": "",
          "type": "uint256"
        },
        {
          "internalType": "uint256",
          "name": "",
          "type": "uint256"
        }
      ],
      "stateMutability": "view",
      "type": "function"
    },
    {
      "inputs": [
        {
          "internalType": "address",
          "name": "userAddress",
          "type": "address"
        }
      ],
      "name": "getPurchases",
      "outputs": [
        {
          "components": [
            {
              "internalType": "uint256",
              "name": "poolId",
              "type": "uint256"
            },
            {
              "internalType": "uint256",
              "name": "position",
              "type": "uint256"
            },
            {
              "internalType": "bool",
              "name": "hasPassed",
              "type": "bool"
            },
            {
              "internalType": "bool",
              "name": "startedInThisPool",
              "type": "bool"
            },
            {
              "internalType": "bool",
              "name": "canContribute",
              "type": "bool"
            }
          ],
          "internalType": "struct multiPoolV3.Purchase[]",
          "name": "",
          "type": "tuple[]"
        }
      ],
      "stateMutability": "view",
      "type": "function"
    },
    {
      "inputs": [
        {
          "internalType": "uint256",
          "name": "poolId",
          "type": "uint256"
        }
      ],
      "name": "getQueue",
      "outputs": [
        {
          "internalType": "address[]",
          "name": "",
          "type": "address[]"
        }
      ],
      "stateMutability": "view",
      "type": "function"
    },
    {
      "inputs": [
        {
          "internalType": "uint256",
          "name": "poolId",
          "type": "uint256"
        },
        {
          "internalType": "address",
          "name": "referrer",
          "type": "address"
        },
        {
          "internalType": "address",
          "name": "wallet",
          "type": "address"
        }
      ],
      "name": "joinPool",
      "outputs": [],
      "stateMutability": "nonpayable",
      "type": "function"
    },
    {
      "inputs": [
        {
          "internalType": "uint256",
          "name": "",
          "type": "uint256"
        }
      ],
      "name": "levels",
      "outputs": [
        {
          "internalType": "uint256",
          "name": "percentage",
          "type": "uint256"
        }
      ],
      "stateMutability": "view",
      "type": "function"
    },
    {
      "inputs": [],
      "name": "networkFeePercentage",
      "outputs": [
        {
          "internalType": "uint256",
          "name": "",
          "type": "uint256"
        }
      ],
      "stateMutability": "view",
      "type": "function"
    },
    {
      "inputs": [
        {
          "internalType": "uint256",
          "name": "",
          "type": "uint256"
        }
      ],
      "name": "payForExtraInPools",
      "outputs": [
        {
          "internalType": "uint256",
          "name": "",
          "type": "uint256"
        }
      ],
      "stateMutability": "view",
      "type": "function"
    },
    {
      "inputs": [
        {
          "internalType": "uint256",
          "name": "",
          "type": "uint256"
        }
      ],
      "name": "pools",
      "outputs": [
        {
          "internalType": "uint256",
          "name": "price",
          "type": "uint256"
        },
        {
          "internalType": "uint256",
          "name": "numUsers",
          "type": "uint256"
        }
      ],
      "stateMutability": "view",
      "type": "function"
    },
    {
      "inputs": [],
      "name": "projectFeePercentage",
      "outputs": [
        {
          "internalType": "uint256",
          "name": "",
          "type": "uint256"
        }
      ],
      "stateMutability": "view",
      "type": "function"
    },
    {
      "inputs": [],
      "name": "projectWallet",
      "outputs": [
        {
          "internalType": "address",
          "name": "",
          "type": "address"
        }
      ],
      "stateMutability": "view",
      "type": "function"
    },
    {
      "inputs": [],
      "name": "totalDistributed",
      "outputs": [
        {
          "internalType": "uint256",
          "name": "",
          "type": "uint256"
        }
      ],
      "stateMutability": "view",
      "type": "function"
    },
    {
      "inputs": [],
      "name": "totalExtra",
      "outputs": [
        {
          "internalType": "uint256",
          "name": "",
          "type": "uint256"
        }
      ],
      "stateMutability": "view",
      "type": "function"
    },
    {
      "inputs": [],
      "name": "totalPayed",
      "outputs": [
        {
          "internalType": "uint256",
          "name": "",
          "type": "uint256"
        }
      ],
      "stateMutability": "view",
      "type": "function"
    },
    {
      "inputs": [
        {
          "internalType": "address",
          "name": "",
          "type": "address"
        }
      ],
      "name": "users",
      "outputs": [
        {
          "internalType": "address",
          "name": "referrer",
          "type": "address"
        },
        {
          "internalType": "uint256",
          "name": "directReferrals",
          "type": "uint256"
        },
        {
          "internalType": "uint256",
          "name": "missedOpportunities",
          "type": "uint256"
        },
        {
          "internalType": "uint256",
          "name": "payedExtra",
          "type": "uint256"
        },
        {
          "internalType": "uint256",
          "name": "totalTree",
          "type": "uint256"
        }
      ],
      "stateMutability": "view",
      "type": "function"
    }
  ],
  "bytecode": "0x6080604052600a60065560146007553480156200001b57600080fd5b5060405162003dce38038062003dce83398181016040528101906200004191906200054c565b80600560006101000a81548173ffffffffffffffffffffffffffffffffffffffff021916908373ffffffffffffffffffffffffffffffffffffffff160217905550816000806101000a81548173ffffffffffffffffffffffffffffffffffffffff021916908373ffffffffffffffffffffffffffffffffffffffff1602179055506302faf0806002600060018152602001908152602001600020600001819055506305f5e100600260006002815260200190815260200160002060000181905550630bebc2006002600060038152602001908152602001600020600001819055506311e1a3006002600060048152602001908152602001600020600001819055506317d78400600260006005815260200190815260200160002060000181905550631dcd6500600260006006815260200190815260200160002060000181905550633b9aca0060026000600781526020019081526020016000206000018190555060036040518060200160405280600a815250908060018154018082558091505060019003906000526020600020016000909190919091506000820151816000015550506003604051806020016040528060038152509080600181540180825580915050600190039060005260206000200160009091909190915060008201518160000155505060036040518060200160405280600281525090806001815401808255809150506001900390600052602060002001600090919091909150600082015181600001555050600360405180602001604052806001815250908060018154018082558091505060019003906000526020600020016000909190919091506000820151816000015550506003604051806020016040528060018152509080600181540180825580915050600190039060005260206000200160009091909190915060008201518160000155505060036040518060200160405280600181525090806001815401808255809150506001900390600052602060002001600090919091909150600082015181600001555050600360405180602001604052806002815250908060018154018082558091505060019003906000526020600020016000909190919091506000820151816000015550506004600090806001815401808255809150506001900390600052602060002001600090919091909150556004624c4b409080600181540180825580915050600190039060005260206000200160009091909190915055600462989680908060018154018082558091505060019003906000526020600020016000909190919091505560046307270e0090806001815401808255809150506001900390600052602060002001600090919091909150556004630db5858090806001815401808255809150506001900390600052602060002001600090919091909150556004631443fd00908060018154018082558091505060019003906000526020600020016000909190919091505560046302faf08090806001815401808255809150506001900390600052602060002001600090919091909150556004635f5e10009080600181540180825580915050600190039060005260206000200160009091909190915055505062000593565b600080fd5b600073ffffffffffffffffffffffffffffffffffffffff82169050919050565b60006200051482620004e7565b9050919050565b620005268162000507565b81146200053257600080fd5b50565b60008151905062000546816200051b565b92915050565b60008060408385031215620005665762000565620004e2565b5b6000620005768582860162000535565b9250506020620005898582860162000535565b9150509250929050565b61382b80620005a36000396000f3fe608060405234801561001057600080fd5b50600436106100f55760003560e01c8063ac4afa3811610097578063bfe7145c11610066578063bfe7145c146102b5578063c54e44eb146102e5578063cbf4b23b14610303578063efca2eed14610321576100f5565b8063ac4afa3814610218578063b2596a6714610249578063bc57910314610279578063beb08ab914610297576100f5565b8063843fa808116100d3578063843fa8081461017857806393f7d5cf1461019457806399452393146101c6578063a87430ba146101e4576100f5565b80630be8fffc146100fa57806370cd5a801461012a5780637c3265421461015a575b600080fd5b610114600480360381019061010f9190612a6c565b61033f565b6040516101219190612b89565b60405180910390f35b610144600480360381019061013f9190612bd7565b610434565b6040516101519190612d45565b60405180910390f35b61016261053a565b60405161016f9190612d76565b60405180910390f35b610192600480360381019061018d9190612d91565b610540565b005b6101ae60048036038101906101a99190612bd7565b610bbc565b6040516101bd93929190612df3565b60405180910390f35b6101ce610cb7565b6040516101db9190612d76565b60405180910390f35b6101fe60048036038101906101f99190612bd7565b610cbd565b60405161020f959493929190612e2a565b60405180910390f35b610232600480360381019061022d9190612a6c565b610d13565b604051610240929190612e7d565b60405180910390f35b610263600480360381019061025e9190612a6c565b610d37565b6040516102709190612d76565b60405180910390f35b610281610d61565b60405161028e9190612d76565b60405180910390f35b61029f610d67565b6040516102ac9190612ea6565b60405180910390f35b6102cf60048036038101906102ca9190612a6c565b610d8d565b6040516102dc9190612d76565b60405180910390f35b6102ed610db1565b6040516102fa9190612f20565b60405180910390f35b61030b610dd5565b6040516103189190612d76565b60405180910390f35b610329610ddb565b6040516103369190612d76565b60405180910390f35b606060018210158015610353575060078211155b610392576040517f08c379a000000000000000000000000000000000000000000000000000000000815260040161038990612f98565b60405180910390fd5b6002600083815260200190815260200160002060020180548060200260200160405190810160405280929190818152602001828054801561042857602002820191906000526020600020905b8160009054906101000a900473ffffffffffffffffffffffffffffffffffffffff1673ffffffffffffffffffffffffffffffffffffffff16815260200190600101908083116103de575b50505050509050919050565b6060600160008373ffffffffffffffffffffffffffffffffffffffff1673ffffffffffffffffffffffffffffffffffffffff168152602001908152602001600020600001805480602002602001604051908101604052809291908181526020016000905b8282101561052f57838290600052602060002090600302016040518060a001604052908160008201548152602001600182015481526020016002820160009054906101000a900460ff161515151581526020016002820160019054906101000a900460ff161515151581526020016002820160029054906101000a900460ff16151515158152505081526020019060010190610498565b505050509050919050565b60075481565b60018310158015610552575060078311155b610591576040517f08c379a000000000000000000000000000000000000000000000000000000000815260040161058890613004565b60405180910390fd5b3373ffffffffffffffffffffffffffffffffffffffff168273ffffffffffffffffffffffffffffffffffffffff16036105ff576040517f08c379a00000000000000000000000000000000000000000000000000000000081526004016105f690613096565b60405180910390fd5b6000600160008373ffffffffffffffffffffffffffffffffffffffff1673ffffffffffffffffffffffffffffffffffffffff1681526020019081526020016000209050600060026000868152602001908152602001600020600101549050600082600001805490500361073d57838260010160006101000a81548173ffffffffffffffffffffffffffffffffffffffff021916908373ffffffffffffffffffffffffffffffffffffffff160217905550600073ffffffffffffffffffffffffffffffffffffffff168473ffffffffffffffffffffffffffffffffffffffff161461073c57600160008573ffffffffffffffffffffffffffffffffffffffff1673ffffffffffffffffffffffffffffffffffffffff1681526020019081526020016000206002016000815480929190610736906130e5565b91905055505b5b3073ffffffffffffffffffffffffffffffffffffffff168373ffffffffffffffffffffffffffffffffffffffff16146108665760008054906101000a900473ffffffffffffffffffffffffffffffffffffffff1673ffffffffffffffffffffffffffffffffffffffff166323b872dd8430600260008a8152602001908152602001600020600001546040518463ffffffff1660e01b81526004016107e39392919061312d565b6020604051808303816000875af1158015610802573d6000803e3d6000fd5b505050506040513d601f19601f820116820180604052508101906108269190613190565b610865576040517f08c379a000000000000000000000000000000000000000000000000000000000815260040161085c90613209565b60405180910390fd5b5b60026000868152602001908152602001600020600001546008600082825461088e9190613229565b9250508190555060006002600087815260200190815260200160002060000154905060006064600654836108c2919061325d565b6108cc91906132ce565b905060008054906101000a900473ffffffffffffffffffffffffffffffffffffffff1673ffffffffffffffffffffffffffffffffffffffff1663a9059cbb600560009054906101000a900473ffffffffffffffffffffffffffffffffffffffff16836040518363ffffffff1660e01b815260040161094b9291906132ff565b6020604051808303816000875af115801561096a573d6000803e3d6000fd5b505050506040513d601f19601f8201168201806040525081019061098e9190613190565b6109cd576040517f08c379a00000000000000000000000000000000000000000000000000000000081526004016109c490613374565b60405180910390fd5b836000016040518060a0016040528089815260200185815260200160001515815260200160058a101515158152602001600115158152509080600181540180825580915050600190039060005260206000209060030201600090919091909150600082015181600001556020820151816001015560408201518160020160006101000a81548160ff02191690831515021790555060608201518160020160016101000a81548160ff02191690831515021790555060808201518160020160026101000a81548160ff021916908315150217905550505060026000888152602001908152602001600020600201859080600181540180825580915050600190039060005260206000200160009091909190916101000a81548173ffffffffffffffffffffffffffffffffffffffff021916908373ffffffffffffffffffffffffffffffffffffffff160217905550600260008881526020019081526020016000206001016000815480929190610b41906130e5565b9190505550868573ffffffffffffffffffffffffffffffffffffffff167f5d7a294516b4a1829eed3a951be2033d36906528a5bf9aa9760885fd55b0c7e885604051610b8d9190612d76565b60405180910390a3610b9f8588610de1565b60038310610bb357610bb2876000611110565b5b50505050505050565b6000806000600160008573ffffffffffffffffffffffffffffffffffffffff1673ffffffffffffffffffffffffffffffffffffffff16815260200190815260200160002060010160009054906101000a900473ffffffffffffffffffffffffffffffffffffffff16600160008673ffffffffffffffffffffffffffffffffffffffff1673ffffffffffffffffffffffffffffffffffffffff16815260200190815260200160002060020154600160008773ffffffffffffffffffffffffffffffffffffffff1673ffffffffffffffffffffffffffffffffffffffff168152602001908152602001600020600301549250925092509193909250565b600a5481565b60016020528060005260406000206000915090508060010160009054906101000a900473ffffffffffffffffffffffffffffffffffffffff16908060020154908060030154908060040154908060050154905085565b60026020528060005260406000206000915090508060000154908060010154905082565b60038181548110610d4757600080fd5b906000526020600020016000915090508060000154905081565b60085481565b600560009054906101000a900473ffffffffffffffffffffffffffffffffffffffff1681565b60048181548110610d9d57600080fd5b906000526020600020016000915090505481565b60008054906101000a900473ffffffffffffffffffffffffffffffffffffffff1681565b60065481565b60095481565b6000600160008473ffffffffffffffffffffffffffffffffffffffff1673ffffffffffffffffffffffffffffffffffffffff16815260200190815260200160002060010160009054906101000a900473ffffffffffffffffffffffffffffffffffffffff16905060005b60038054905081108015610e8c5750600073ffffffffffffffffffffffffffffffffffffffff168273ffffffffffffffffffffffffffffffffffffffff1614155b1561110a576000606460038381548110610ea957610ea8613394565b5b90600052602060002001600001546002600087815260200190815260200160002060000154610ed8919061325d565b610ee291906132ce565b905060008054906101000a900473ffffffffffffffffffffffffffffffffffffffff1673ffffffffffffffffffffffffffffffffffffffff1663a9059cbb84836040518363ffffffff1660e01b8152600401610f3f9291906132ff565b6020604051808303816000875af1158015610f5e573d6000803e3d6000fd5b505050506040513d601f19601f82011682018060405250810190610f829190613190565b610fc1576040517f08c379a0000000000000000000000000000000000000000000000000000000008152600401610fb89061340f565b60405180910390fd5b80600160008573ffffffffffffffffffffffffffffffffffffffff1673ffffffffffffffffffffffffffffffffffffffff16815260200190815260200160002060050160008282546110139190613229565b925050819055508273ffffffffffffffffffffffffffffffffffffffff167fb63d16ce268f739ee8d407f4fe2c19a45e8cb4a4771fc0f0c54af2c07836cf7a82866001866110619190613229565b6040516110709392919061342f565b60405180910390a2806009600082825461108a9190613229565b92505081905550600160008473ffffffffffffffffffffffffffffffffffffffff1673ffffffffffffffffffffffffffffffffffffffff16815260200190815260200160002060010160009054906101000a900473ffffffffffffffffffffffffffffffffffffffff169250508080611102906130e5565b915050610e4b565b50505050565b60018210158015611122575060078211155b611161576040517f08c379a000000000000000000000000000000000000000000000000000000000815260040161115890613004565b60405180910390fd5b600260008381526020019081526020016000206001015481106111b9576040517f08c379a00000000000000000000000000000000000000000000000000000000081526004016111b0906134b2565b60405180910390fd5b60006002600084815260200190815260200160002060020182815481106111e3576111e2613394565b5b9060005260206000200160009054906101000a900473ffffffffffffffffffffffffffffffffffffffff1690506000600160008373ffffffffffffffffffffffffffffffffffffffff1673ffffffffffffffffffffffffffffffffffffffff1681526020019081526020016000209050600061126082868661157a565b9050600061126d8661166e565b905080836002015410158061129057508160020160019054906101000a900460ff165b80156112a257506112a186866116e0565b5b15611314576112b2848787611b76565b6000600290505b6007811161130e5760005b60026000838152602001908152602001600020600101548110156112fa576112ed826000611110565b80806001019150506112c4565b508080611306906130e5565b9150506112b9565b50611572565b826003016000815480929190611329906130e5565b91905055508373ffffffffffffffffffffffffffffffffffffffff167f982434c7ce9a7d98b21e4c0cdde4fa70352156fdcd44ea57a7c31217af1429ea87856003015460405161137a929190612e7d565b60405180910390a260006001866113919190613229565b90505b60026000888152602001908152602001600020600101548110156115705760006002600089815260200190815260200160002060020182815481106113dc576113db613394565b5b9060005260206000200160009054906101000a900473ffffffffffffffffffffffffffffffffffffffff1690506000600160008373ffffffffffffffffffffffffffffffffffffffff1673ffffffffffffffffffffffffffffffffffffffff168152602001908152602001600020905083816002015410158061146d57508460020160019054906101000a900460ff165b801561147f575061147e89896116e0565b5b156114f35761148f828a85611b76565b6000600290505b600781116114eb5760005b60026000838152602001908152602001600020600101548110156114d7576114ca826000611110565b80806001019150506114a1565b5080806114e3906130e5565b915050611496565b505050611570565b806003016000815480929190611508906130e5565b91905055508173ffffffffffffffffffffffffffffffffffffffff167f982434c7ce9a7d98b21e4c0cdde4fa70352156fdcd44ea57a7c31217af1429ea8a8360030154604051611559929190612e7d565b60405180910390a250508080600101915050611394565b505b505050505050565b600080600090505b846000018054905081101561162b57838560000182815481106115a8576115a7613394565b5b9060005260206000209060030201600001541480156115ed5750828560000182815481106115d9576115d8613394565b5b906000526020600020906003020160010154145b1561161e5784600001818154811061160857611607613394565b5b9060005260206000209060030201915050611667565b8080600101915050611582565b506040517f08c379a000000000000000000000000000000000000000000000000000000000815260040161165e9061351e565b60405180910390fd5b9392505050565b60006001820361168157600090506116db565b6002820361169257600190506116db565b600382036116a357600290506116db565b600482036116b457600390506116db565b600582036116c557600490506116db565b600682036116d657600590506116db565b600090505b919050565b600080600090506000600367ffffffffffffffff8111156117045761170361353e565b5b60405190808252806020026020018201604052801561173d57816020015b61172a612a01565b8152602001906001900390816117225790505b5090506000806001866117509190613229565b90505b60026000888152602001908152602001600020600201805490508110801561177b5750600384105b156119845760006002600089815260200190815260200160002060020182815481106117aa576117a9613394565b5b9060005260206000200160009054906101000a900473ffffffffffffffffffffffffffffffffffffffff1690506000600160008373ffffffffffffffffffffffffffffffffffffffff1673ffffffffffffffffffffffffffffffffffffffff1681526020019081526020016000209050600080826000018054905090505b600081111561195857600083600001600183611844919061356d565b8154811061185557611854613394565b5b906000526020600020906003020190508b816000015414801561188657508060020160029054906101000a900460ff165b15611944576001925060405180604001604052808673ffffffffffffffffffffffffffffffffffffffff1681526020016001846118c3919061356d565b8152508888815181106118d9576118d8613394565b5b60200260200101819052506000846000016001846118f7919061356d565b8154811061190857611907613394565b5b906000526020600020906003020160020160026101000a81548160ff021916908315150217905550868061193b906130e5565b97505050611958565b508080611950906135a1565b915050611828565b50801561196e57868061196a906130e5565b9750505b505050808061197c906130e5565b915050611753565b5060038310611a585760005b6003811015611a525760008382815181106119ae576119ad613394565b5b60200260200101519050600060016000836000015173ffffffffffffffffffffffffffffffffffffffff1673ffffffffffffffffffffffffffffffffffffffff1681526020019081526020016000209050600081600001836020015181548110611a1b57611a1a613394565b5b906000526020600020906003020160020160026101000a81548160ff02191690831515021790555050508080600101915050611990565b50611b68565b60005b6003811015611b5b576000838281518110611a7957611a78613394565b5b60200260200101519050600073ffffffffffffffffffffffffffffffffffffffff16816000015173ffffffffffffffffffffffffffffffffffffffff1603611ac15750611b5b565b600060016000836000015173ffffffffffffffffffffffffffffffffffffffff1673ffffffffffffffffffffffffffffffffffffffff1681526020019081526020016000209050600181600001836020015181548110611b2457611b23613394565b5b906000526020600020906003020160020160026101000a81548160ff02191690831515021790555050508080600101915050611a5b565b5060009350505050611b70565b600193505050505b92915050565b6000600160008573ffffffffffffffffffffffffffffffffffffffff1673ffffffffffffffffffffffffffffffffffffffff16815260200190815260200160002090506000611bc682858561157a565b905060018160020160006101000a81548160ff0219169083151502179055506000600185611bf49190613229565b9050611c008585611f4d565b60008490505b6002600087815260200190815260200160002060020180549050811015611cf5576000600260008881526020019081526020016000206002018281548110611c5157611c50613394565b5b9060005260206000200160009054906101000a900473ffffffffffffffffffffffffffffffffffffffff1690506000600160008373ffffffffffffffffffffffffffffffffffffffff1673ffffffffffffffffffffffffffffffffffffffff16815260200190815260200160002090506000611cda828a600187611cd59190613229565b61157a565b90508381600101819055505050508080600101915050611c06565b5060008054906101000a900473ffffffffffffffffffffffffffffffffffffffff1673ffffffffffffffffffffffffffffffffffffffff1663a9059cbb8760048881548110611d4757611d46613394565b5b90600052602060002001546040518363ffffffff1660e01b8152600401611d6f9291906132ff565b6020604051808303816000875af1158015611d8e573d6000803e3d6000fd5b505050506040513d601f19601f82011682018060405250810190611db29190613190565b611df1576040517f08c379a0000000000000000000000000000000000000000000000000000000008152600401611de890613616565b60405180910390fd5b8573ffffffffffffffffffffffffffffffffffffffff167f2cc6d11dfc632469e7f760bc6cc605413cb63f6d83af3384862007655d91f33860048781548110611e3d57611e3c613394565b5b90600052602060002001548787604051611e599392919061342f565b60405180910390a260048581548110611e7557611e74613394565b5b9060005260206000200154600a6000828254611e919190613229565b9250508190555060048581548110611eac57611eab613394565b5b9060005260206000200154836004016000828254611eca9190613229565b9250508190555060078503611eea57611ee5600160036123ff565b611f45565b611ef48187612640565b80858773ffffffffffffffffffffffffffffffffffffffff167fa4b503cf1a0317bfa062a721bd5edaa915a397798f63635c14deeccf2f17e40b87604051611f3c9190612d76565b60405180910390a45b505050505050565b60026000838152602001908152602001600020600201805490508110611fa8576040517f08c379a0000000000000000000000000000000000000000000000000000000008152600401611f9f90613682565b60405180910390fd5b6000600260008481526020019081526020016000206002018281548110611fd257611fd1613394565b5b9060005260206000200160009054906101000a900473ffffffffffffffffffffffffffffffffffffffff1690506000600160008373ffffffffffffffffffffffffffffffffffffffff1673ffffffffffffffffffffffffffffffffffffffff168152602001908152602001600020905060005b8160000180549050811015612261578482600001828154811061206b5761206a613394565b5b9060005260206000209060030201600001541480156120b057508382600001828154811061209c5761209b613394565b5b906000526020600020906003020160010154145b156122545760008190505b600183600001805490506120cf919061356d565b8110156121d557826000016001826120e79190613229565b815481106120f8576120f7613394565b5b906000526020600020906003020183600001828154811061211c5761211b613394565b5b906000526020600020906003020160008201548160000155600182015481600101556002820160009054906101000a900460ff168160020160006101000a81548160ff0219169083151502179055506002820160019054906101000a900460ff168160020160016101000a81548160ff0219169083151502179055506002820160029054906101000a900460ff168160020160026101000a81548160ff02191690831515021790555090505080806001019150506120bb565b50816000018054806121ea576121e96136a2565b5b600190038181906000526020600020906003020160008082016000905560018201600090556002820160006101000a81549060ff02191690556002820160016101000a81549060ff02191690556002820160026101000a81549060ff021916905550509055612261565b8080600101915050612045565b5060008390505b6001600260008781526020019081526020016000206002018054905061228e919061356d565b81101561237157600260008681526020019081526020016000206002016001826122b89190613229565b815481106122c9576122c8613394565b5b9060005260206000200160009054906101000a900473ffffffffffffffffffffffffffffffffffffffff1660026000878152602001908152602001600020600201828154811061231c5761231b613394565b5b9060005260206000200160006101000a81548173ffffffffffffffffffffffffffffffffffffffff021916908373ffffffffffffffffffffffffffffffffffffffff1602179055508080600101915050612268565b5060026000858152602001908152602001600020600201805480612398576123976136a2565b5b6001900381819060005260206000200160006101000a81549073ffffffffffffffffffffffffffffffffffffffff021916905590556002600085815260200190815260200160002060010160008154809291906123f4906135a1565b919050555050505050565b60018210158015612411575060078211155b612450576040517f08c379a000000000000000000000000000000000000000000000000000000000815260040161244790613004565b60405180910390fd5b60008111612493576040517f08c379a000000000000000000000000000000000000000000000000000000000815260040161248a90613743565b60405180910390fd5b80600260008481526020019081526020016000206001015410156124ec576040517f08c379a00000000000000000000000000000000000000000000000000000000081526004016124e3906137d5565b60405180910390fd5b60005b818110156125de576000600260006001815260200190815260200160002060020160008154811061252357612522613394565b5b9060005260206000200160009054906101000a900473ffffffffffffffffffffffffffffffffffffffff1690506000600160008373ffffffffffffffffffffffffffffffffffffffff1673ffffffffffffffffffffffffffffffffffffffff168152602001908152602001600020905060006125a2826001600061157a565b905060018160020160006101000a81548160ff0219169083151502179055506125ce8360016000611b76565b50505080806001019150506124ef565b506000600290505b6007811161263b5760005b60026000838152602001908152602001600020600101548110156126275761261a826000611110565b80806001019150506125f1565b508080612633906130e5565b9150506125e6565b505050565b60018210158015612652575060078211155b612691576040517f08c379a000000000000000000000000000000000000000000000000000000000815260040161268890613004565b60405180910390fd5b6000600160008373ffffffffffffffffffffffffffffffffffffffff1673ffffffffffffffffffffffffffffffffffffffff1681526020019081526020016000209050600060026000858152602001908152602001600020600101549050600060026000868152602001908152602001600020600001549050600060646006548361271c919061325d565b61272691906132ce565b905060008054906101000a900473ffffffffffffffffffffffffffffffffffffffff1673ffffffffffffffffffffffffffffffffffffffff1663a9059cbb600560009054906101000a900473ffffffffffffffffffffffffffffffffffffffff16836040518363ffffffff1660e01b81526004016127a59291906132ff565b6020604051808303816000875af11580156127c4573d6000803e3d6000fd5b505050506040513d601f19601f820116820180604052508101906127e89190613190565b612827576040517f08c379a000000000000000000000000000000000000000000000000000000000815260040161281e90613374565b60405180910390fd5b836000016040518060a00160405280888152602001858152602001600015158152602001600589101515158152602001600115158152509080600181540180825580915050600190039060005260206000209060030201600090919091909150600082015181600001556020820151816001015560408201518160020160006101000a81548160ff02191690831515021790555060608201518160020160016101000a81548160ff02191690831515021790555060808201518160020160026101000a81548160ff021916908315150217905550505060026000878152602001908152602001600020600201859080600181540180825580915050600190039060005260206000200160009091909190916101000a81548173ffffffffffffffffffffffffffffffffffffffff021916908373ffffffffffffffffffffffffffffffffffffffff16021790555060026000878152602001908152602001600020600101600081548092919061299b906130e5565b9190505550858573ffffffffffffffffffffffffffffffffffffffff167f5d7a294516b4a1829eed3a951be2033d36906528a5bf9aa9760885fd55b0c7e8856040516129e79190612d76565b60405180910390a36129f98587610de1565b505050505050565b6040518060400160405280600073ffffffffffffffffffffffffffffffffffffffff168152602001600081525090565b600080fd5b6000819050919050565b612a4981612a36565b8114612a5457600080fd5b50565b600081359050612a6681612a40565b92915050565b600060208284031215612a8257612a81612a31565b5b6000612a9084828501612a57565b91505092915050565b600081519050919050565b600082825260208201905092915050565b6000819050602082019050919050565b600073ffffffffffffffffffffffffffffffffffffffff82169050919050565b6000612af082612ac5565b9050919050565b612b0081612ae5565b82525050565b6000612b128383612af7565b60208301905092915050565b6000602082019050919050565b6000612b3682612a99565b612b408185612aa4565b9350612b4b83612ab5565b8060005b83811015612b7c578151612b638882612b06565b9750612b6e83612b1e565b925050600181019050612b4f565b5085935050505092915050565b60006020820190508181036000830152612ba38184612b2b565b905092915050565b612bb481612ae5565b8114612bbf57600080fd5b50565b600081359050612bd181612bab565b92915050565b600060208284031215612bed57612bec612a31565b5b6000612bfb84828501612bc2565b91505092915050565b600081519050919050565b600082825260208201905092915050565b6000819050602082019050919050565b612c3981612a36565b82525050565b60008115159050919050565b612c5481612c3f565b82525050565b60a082016000820151612c706000850182612c30565b506020820151612c836020850182612c30565b506040820151612c966040850182612c4b565b506060820151612ca96060850182612c4b565b506080820151612cbc6080850182612c4b565b50505050565b6000612cce8383612c5a565b60a08301905092915050565b6000602082019050919050565b6000612cf282612c04565b612cfc8185612c0f565b9350612d0783612c20565b8060005b83811015612d38578151612d1f8882612cc2565b9750612d2a83612cda565b925050600181019050612d0b565b5085935050505092915050565b60006020820190508181036000830152612d5f8184612ce7565b905092915050565b612d7081612a36565b82525050565b6000602082019050612d8b6000830184612d67565b92915050565b600080600060608486031215612daa57612da9612a31565b5b6000612db886828701612a57565b9350506020612dc986828701612bc2565b9250506040612dda86828701612bc2565b9150509250925092565b612ded81612ae5565b82525050565b6000606082019050612e086000830186612de4565b612e156020830185612d67565b612e226040830184612d67565b949350505050565b600060a082019050612e3f6000830188612de4565b612e4c6020830187612d67565b612e596040830186612d67565b612e666060830185612d67565b612e736080830184612d67565b9695505050505050565b6000604082019050612e926000830185612d67565b612e9f6020830184612d67565b9392505050565b6000602082019050612ebb6000830184612de4565b92915050565b6000819050919050565b6000612ee6612ee1612edc84612ac5565b612ec1565b612ac5565b9050919050565b6000612ef882612ecb565b9050919050565b6000612f0a82612eed565b9050919050565b612f1a81612eff565b82525050565b6000602082019050612f356000830184612f11565b92915050565b600082825260208201905092915050565b7f506f6f6c206e6f2076616c696461000000000000000000000000000000000000600082015250565b6000612f82600e83612f3b565b9150612f8d82612f4c565b602082019050919050565b60006020820190508181036000830152612fb181612f75565b9050919050565b7f506f6f6c206e6f2076616c69646f000000000000000000000000000000000000600082015250565b6000612fee600e83612f3b565b9150612ff982612fb8565b602082019050919050565b6000602082019050818103600083015261301d81612fe1565b9050919050565b7f4e6f20657320706f7369626c6520717565207365617320656c206d69736d6f2060008201527f73706f6e736f7200000000000000000000000000000000000000000000000000602082015250565b6000613080602783612f3b565b915061308b82613024565b604082019050919050565b600060208201905081810360008301526130af81613073565b9050919050565b7f4e487b7100000000000000000000000000000000000000000000000000000000600052601160045260246000fd5b60006130f082612a36565b91507fffffffffffffffffffffffffffffffffffffffffffffffffffffffffffffffff8203613122576131216130b6565b5b600182019050919050565b60006060820190506131426000830186612de4565b61314f6020830185612de4565b61315c6040830184612d67565b949350505050565b61316d81612c3f565b811461317857600080fd5b50565b60008151905061318a81613164565b92915050565b6000602082840312156131a6576131a5612a31565b5b60006131b48482850161317b565b91505092915050565b7f5472616e73666572656e6369612066616c6c6964610000000000000000000000600082015250565b60006131f3601583612f3b565b91506131fe826131bd565b602082019050919050565b60006020820190508181036000830152613222816131e6565b9050919050565b600061323482612a36565b915061323f83612a36565b9250828201905080821115613257576132566130b6565b5b92915050565b600061326882612a36565b915061327383612a36565b925082820261328181612a36565b91508282048414831517613298576132976130b6565b5b5092915050565b7f4e487b7100000000000000000000000000000000000000000000000000000000600052601260045260246000fd5b60006132d982612a36565b91506132e483612a36565b9250826132f4576132f361329f565b5b828204905092915050565b60006040820190506133146000830185612de4565b6133216020830184612d67565b9392505050565b7f5061676f20616c2070726f796563746f2066616c6c69646f0000000000000000600082015250565b600061335e601883612f3b565b915061336982613328565b602082019050919050565b6000602082019050818103600083015261338d81613351565b9050919050565b7f4e487b7100000000000000000000000000000000000000000000000000000000600052603260045260246000fd5b7f5061676f20616c20726566657269646f2066616c6c69646f0000000000000000600082015250565b60006133f9601883612f3b565b9150613404826133c3565b602082019050919050565b60006020820190508181036000830152613428816133ec565b9050919050565b60006060820190506134446000830186612d67565b6134516020830185612d67565b61345e6040830184612d67565b949350505050565b7f506f736963696f6e206e6f2076616c69646120656e20656c20706f6f6c000000600082015250565b600061349c601d83612f3b565b91506134a782613466565b602082019050919050565b600060208201905081810360008301526134cb8161348f565b9050919050565b7f436f6d707261206e6f20656e636f6e7472616461000000000000000000000000600082015250565b6000613508601483612f3b565b9150613513826134d2565b602082019050919050565b60006020820190508181036000830152613537816134fb565b9050919050565b7f4e487b7100000000000000000000000000000000000000000000000000000000600052604160045260246000fd5b600061357882612a36565b915061358383612a36565b925082820390508181111561359b5761359a6130b6565b5b92915050565b60006135ac82612a36565b9150600082036135bf576135be6130b6565b5b600182039050919050565b7f5061676f206465206176616e63652066616c6c69646f00000000000000000000600082015250565b6000613600601683612f3b565b915061360b826135ca565b602082019050919050565b6000602082019050818103600083015261362f816135f3565b9050919050565b7f506f736963696f6e206e6f2076616c6964610000000000000000000000000000600082015250565b600061366c601283612f3b565b915061367782613636565b602082019050919050565b6000602082019050818103600083015261369b8161365f565b9050919050565b7f4e487b7100000000000000000000000000000000000000000000000000000000600052603160045260246000fd5b7f506f736963696f6e65732061206d6f76657220646562656e20736572206d617960008201527f6f72206120300000000000000000000000000000000000000000000000000000602082015250565b600061372d602683612f3b565b9150613738826136d1565b604082019050919050565b6000602082019050818103600083015261375c81613720565b9050919050565b7f4e6f2068617920737566696369656e746573207573756172696f7320656e206c60008201527f6120506f6f6c0000000000000000000000000000000000000000000000000000602082015250565b60006137bf602683612f3b565b91506137ca82613763565b604082019050919050565b600060208201905081810360008301526137ee816137b2565b905091905056fea2646970667358221220a182837bb05f833fb2444073413d8cde2c1e92f7a399e3574ce22e331798423164736f6c63430008180033",
  "linkReferences": {},
  "deployedLinkReferences": {}
}