{
  "_format": "hh-sol-artifact-1",
  "contractName": "multiPool",
  "sourceName": "contracts/mutlPoolV1.sol",
  "abi": [
    {
      "inputs": [
        {
          "internalType": "address",
          "name": "_usdtAddress",
          "type": "address"
        },
        {
          "internalType": "address",
          "name": "_projectWallet",
          "type": "address"
        }
      ],
      "stateMutability": "nonpayable",
      "type": "constructor"
    },
    {
      "anonymous": false,
      "inputs": [
        {
          "indexed": true,
          "internalType": "address",
          "name": "user",
          "type": "address"
        },
        {
          "indexed": false,
          "internalType": "uint256",
          "name": "amount",
          "type": "uint256"
        },
        {
          "indexed": false,
          "internalType": "uint256",
          "name": "poolId",
          "type": "uint256"
        },
        {
          "indexed": false,
          "internalType": "uint256",
          "name": "position",
          "type": "uint256"
        }
      ],
      "name": "ExceedingPayment",
      "type": "event"
    },
    {
      "anonymous": false,
      "inputs": [
        {
          "indexed": true,
          "internalType": "address",
          "name": "user",
          "type": "address"
        },
        {
          "indexed": false,
          "internalType": "uint256",
          "name": "amount",
          "type": "uint256"
        },
        {
          "indexed": false,
          "internalType": "uint256",
          "name": "poolId",
          "type": "uint256"
        },
        {
          "indexed": false,
          "internalType": "uint256",
          "name": "position",
          "type": "uint256"
        }
      ],
      "name": "PaymentDistributed",
      "type": "event"
    },
    {
      "anonymous": false,
      "inputs": [
        {
          "indexed": true,
          "internalType": "address",
          "name": "user",
          "type": "address"
        },
        {
          "indexed": true,
          "internalType": "uint256",
          "name": "fromPool",
          "type": "uint256"
        },
        {
          "indexed": true,
          "internalType": "uint256",
          "name": "toPool",
          "type": "uint256"
        },
        {
          "indexed": false,
          "internalType": "uint256",
          "name": "position",
          "type": "uint256"
        }
      ],
      "name": "PoolAdvanced",
      "type": "event"
    },
    {
      "anonymous": false,
      "inputs": [
        {
          "indexed": true,
          "internalType": "address",
          "name": "user",
          "type": "address"
        },
        {
          "indexed": true,
          "internalType": "uint256",
          "name": "poolId",
          "type": "uint256"
        },
        {
          "indexed": false,
          "internalType": "uint256",
          "name": "position",
          "type": "uint256"
        }
      ],
      "name": "PoolJoined",
      "type": "event"
    },
    {
      "inputs": [],
      "name": "USDT",
      "outputs": [
        {
          "internalType": "contract IERC20",
          "name": "",
          "type": "address"
        }
      ],
      "stateMutability": "view",
      "type": "function"
    },
    {
      "inputs": [
        {
          "internalType": "address",
          "name": "userAddress",
          "type": "address"
        },
        {
          "internalType": "uint256",
          "name": "poolId",
          "type": "uint256"
        },
        {
          "internalType": "uint256",
          "name": "position",
          "type": "uint256"
        }
      ],
      "name": "advancePool",
      "outputs": [],
      "stateMutability": "nonpayable",
      "type": "function"
    },
    {
      "inputs": [
        {
          "internalType": "address",
          "name": "userAddress",
          "type": "address"
        }
      ],
      "name": "getPurchases",
      "outputs": [
        {
          "components": [
            {
              "internalType": "uint256",
              "name": "poolId",
              "type": "uint256"
            },
            {
              "internalType": "uint256",
              "name": "position",
              "type": "uint256"
            },
            {
              "internalType": "bool",
              "name": "hasPassed",
              "type": "bool"
            }
          ],
          "internalType": "struct multiPool.Purchase[]",
          "name": "",
          "type": "tuple[]"
        }
      ],
      "stateMutability": "view",
      "type": "function"
    },
    {
      "inputs": [
        {
          "internalType": "uint256",
          "name": "poolId",
          "type": "uint256"
        }
      ],
      "name": "getQueue",
      "outputs": [
        {
          "internalType": "address[]",
          "name": "",
          "type": "address[]"
        }
      ],
      "stateMutability": "view",
      "type": "function"
    },
    {
      "inputs": [
        {
          "internalType": "uint256",
          "name": "poolId",
          "type": "uint256"
        },
        {
          "internalType": "address",
          "name": "referrer",
          "type": "address"
        }
      ],
      "name": "joinPool",
      "outputs": [],
      "stateMutability": "nonpayable",
      "type": "function"
    },
    {
      "inputs": [
        {
          "internalType": "uint256",
          "name": "",
          "type": "uint256"
        }
      ],
      "name": "levels",
      "outputs": [
        {
          "internalType": "uint256",
          "name": "percentage",
          "type": "uint256"
        }
      ],
      "stateMutability": "view",
      "type": "function"
    },
    {
      "inputs": [],
      "name": "networkFeePercentage",
      "outputs": [
        {
          "internalType": "uint256",
          "name": "",
          "type": "uint256"
        }
      ],
      "stateMutability": "view",
      "type": "function"
    },
    {
      "inputs": [
        {
          "internalType": "uint256",
          "name": "",
          "type": "uint256"
        }
      ],
      "name": "payForExtraInPools",
      "outputs": [
        {
          "internalType": "uint256",
          "name": "",
          "type": "uint256"
        }
      ],
      "stateMutability": "view",
      "type": "function"
    },
    {
      "inputs": [
        {
          "internalType": "uint256",
          "name": "",
          "type": "uint256"
        }
      ],
      "name": "pools",
      "outputs": [
        {
          "internalType": "uint256",
          "name": "price",
          "type": "uint256"
        },
        {
          "internalType": "uint256",
          "name": "numUsers",
          "type": "uint256"
        }
      ],
      "stateMutability": "view",
      "type": "function"
    },
    {
      "inputs": [],
      "name": "projectFeePercentage",
      "outputs": [
        {
          "internalType": "uint256",
          "name": "",
          "type": "uint256"
        }
      ],
      "stateMutability": "view",
      "type": "function"
    },
    {
      "inputs": [],
      "name": "projectWallet",
      "outputs": [
        {
          "internalType": "address",
          "name": "",
          "type": "address"
        }
      ],
      "stateMutability": "view",
      "type": "function"
    },
    {
      "inputs": [
        {
          "internalType": "address",
          "name": "",
          "type": "address"
        }
      ],
      "name": "users",
      "outputs": [
        {
          "internalType": "address",
          "name": "referrer",
          "type": "address"
        }
      ],
      "stateMutability": "view",
      "type": "function"
    }
  ],
  "bytecode": "0x6080604052600a60065560146007553480156200001b57600080fd5b50604051620027653803806200276583398181016040528101906200004191906200054c565b80600560006101000a81548173ffffffffffffffffffffffffffffffffffffffff021916908373ffffffffffffffffffffffffffffffffffffffff160217905550816000806101000a81548173ffffffffffffffffffffffffffffffffffffffff021916908373ffffffffffffffffffffffffffffffffffffffff1602179055506302faf0806002600060018152602001908152602001600020600001819055506305f5e100600260006002815260200190815260200160002060000181905550630bebc2006002600060038152602001908152602001600020600001819055506311e1a3006002600060048152602001908152602001600020600001819055506317d78400600260006005815260200190815260200160002060000181905550631dcd6500600260006006815260200190815260200160002060000181905550633b9aca0060026000600781526020019081526020016000206000018190555060036040518060200160405280600a815250908060018154018082558091505060019003906000526020600020016000909190919091506000820151816000015550506003604051806020016040528060038152509080600181540180825580915050600190039060005260206000200160009091909190915060008201518160000155505060036040518060200160405280600281525090806001815401808255809150506001900390600052602060002001600090919091909150600082015181600001555050600360405180602001604052806001815250908060018154018082558091505060019003906000526020600020016000909190919091506000820151816000015550506003604051806020016040528060018152509080600181540180825580915050600190039060005260206000200160009091909190915060008201518160000155505060036040518060200160405280600181525090806001815401808255809150506001900390600052602060002001600090919091909150600082015181600001555050600360405180602001604052806002815250908060018154018082558091505060019003906000526020600020016000909190919091506000820151816000015550506004600090806001815401808255809150506001900390600052602060002001600090919091909150556004624c4b409080600181540180825580915050600190039060005260206000200160009091909190915055600462989680908060018154018082558091505060019003906000526020600020016000909190919091505560046307270e0090806001815401808255809150506001900390600052602060002001600090919091909150556004630db5858090806001815401808255809150506001900390600052602060002001600090919091909150556004631443fd00908060018154018082558091505060019003906000526020600020016000909190919091505560046302faf08090806001815401808255809150506001900390600052602060002001600090919091909150556004635f5e10009080600181540180825580915050600190039060005260206000200160009091909190915055505062000593565b600080fd5b600073ffffffffffffffffffffffffffffffffffffffff82169050919050565b60006200051482620004e7565b9050919050565b620005268162000507565b81146200053257600080fd5b50565b60008151905062000546816200051b565b92915050565b60008060408385031215620005665762000565620004e2565b5b6000620005768582860162000535565b9250506020620005898582860162000535565b9150509250929050565b6121c280620005a36000396000f3fe608060405234801561001057600080fd5b50600436106100b45760003560e01c8063b2596a6711610071578063b2596a67146101b4578063beb08ab9146101e4578063bfe7145c14610202578063c54e44eb14610232578063cbf4b23b14610250578063d2787e951461026e576100b4565b80630be8fffc146100b957806370cd5a80146100e95780637c32654214610119578063a45e6bc414610137578063a87430ba14610153578063ac4afa3814610183575b600080fd5b6100d360048036038101906100ce91906115b2565b61028a565b6040516100e091906116cf565b60405180910390f35b61010360048036038101906100fe919061171d565b61037f565b6040516101109190611865565b60405180910390f35b61012161044f565b60405161012e9190611896565b60405180910390f35b610151600480360381019061014c91906118b1565b610455565b005b61016d6004803603810190610168919061171d565b61095c565b60405161017a9190611900565b60405180910390f35b61019d600480360381019061019891906115b2565b61099a565b6040516101ab92919061191b565b60405180910390f35b6101ce60048036038101906101c991906115b2565b6109be565b6040516101db9190611896565b60405180910390f35b6101ec6109e8565b6040516101f99190611900565b60405180910390f35b61021c600480360381019061021791906115b2565b610a0e565b6040516102299190611896565b60405180910390f35b61023a610a32565b60405161024791906119a3565b60405180910390f35b610258610a56565b6040516102659190611896565b60405180910390f35b610288600480360381019061028391906119be565b610a5c565b005b60606001821015801561029e575060078211155b6102dd576040517f08c379a00000000000000000000000000000000000000000000000000000000081526004016102d490611a6e565b60405180910390fd5b6002600083815260200190815260200160002060020180548060200260200160405190810160405280929190818152602001828054801561037357602002820191906000526020600020905b8160009054906101000a900473ffffffffffffffffffffffffffffffffffffffff1673ffffffffffffffffffffffffffffffffffffffff1681526020019060010190808311610329575b50505050509050919050565b6060600160008373ffffffffffffffffffffffffffffffffffffffff1673ffffffffffffffffffffffffffffffffffffffff168152602001908152602001600020600001805480602002602001604051908101604052809291908181526020016000905b82821015610444578382906000526020600020906003020160405180606001604052908160008201548152602001600182015481526020016002820160009054906101000a900460ff161515151581525050815260200190600101906103e3565b505050509050919050565b60075481565b60018210158015610467575060078211155b6104a6576040517f08c379a000000000000000000000000000000000000000000000000000000000815260040161049d90611ada565b60405180910390fd5b6000600160003373ffffffffffffffffffffffffffffffffffffffff1673ffffffffffffffffffffffffffffffffffffffff1681526020019081526020016000209050600060026000858152602001908152602001600020600101549050600082600001805490500361055757828260010160006101000a81548173ffffffffffffffffffffffffffffffffffffffff021916908373ffffffffffffffffffffffffffffffffffffffff1602179055505b3073ffffffffffffffffffffffffffffffffffffffff163373ffffffffffffffffffffffffffffffffffffffff16146106805760008054906101000a900473ffffffffffffffffffffffffffffffffffffffff1673ffffffffffffffffffffffffffffffffffffffff166323b872dd333060026000898152602001908152602001600020600001546040518463ffffffff1660e01b81526004016105fd93929190611afa565b6020604051808303816000875af115801561061c573d6000803e3d6000fd5b505050506040513d601f19601f820116820180604052508101906106409190611b5d565b61067f576040517f08c379a000000000000000000000000000000000000000000000000000000000815260040161067690611bd6565b60405180910390fd5b5b60006002600086815260200190815260200160002060000154905060006064600654836106ad9190611c25565b6106b79190611c96565b905060008054906101000a900473ffffffffffffffffffffffffffffffffffffffff1673ffffffffffffffffffffffffffffffffffffffff1663a9059cbb600560009054906101000a900473ffffffffffffffffffffffffffffffffffffffff16836040518363ffffffff1660e01b8152600401610736929190611cc7565b6020604051808303816000875af1158015610755573d6000803e3d6000fd5b505050506040513d601f19601f820116820180604052508101906107799190611b5d565b6107b8576040517f08c379a00000000000000000000000000000000000000000000000000000000081526004016107af90611d3c565b60405180910390fd5b836000016040518060600160405280888152602001858152602001600015158152509080600181540180825580915050600190039060005260206000209060030201600090919091909150600082015181600001556020820151816001015560408201518160020160006101000a81548160ff021916908315150217905550505060026000878152602001908152602001600020600201339080600181540180825580915050600190039060005260206000200160009091909190916101000a81548173ffffffffffffffffffffffffffffffffffffffff021916908373ffffffffffffffffffffffffffffffffffffffff1602179055506002600087815260200190815260200160002060010160008154809291906108d790611d5c565b9190505550853373ffffffffffffffffffffffffffffffffffffffff167f5d7a294516b4a1829eed3a951be2033d36906528a5bf9aa9760885fd55b0c7e8856040516109239190611896565b60405180910390a36109353387610fe7565b60038310610954576109538660038561094e9190611da4565b6112a4565b5b505050505050565b60016020528060005260406000206000915090508060010160009054906101000a900473ffffffffffffffffffffffffffffffffffffffff16905081565b60026020528060005260406000206000915090508060000154908060010154905082565b600381815481106109ce57600080fd5b906000526020600020016000915090508060000154905081565b600560009054906101000a900473ffffffffffffffffffffffffffffffffffffffff1681565b60048181548110610a1e57600080fd5b906000526020600020016000915090505481565b60008054906101000a900473ffffffffffffffffffffffffffffffffffffffff1681565b60065481565b3073ffffffffffffffffffffffffffffffffffffffff163373ffffffffffffffffffffffffffffffffffffffff1614610aca576040517f08c379a0000000000000000000000000000000000000000000000000000000008152600401610ac190611e24565b60405180910390fd5b6000600160008573ffffffffffffffffffffffffffffffffffffffff1673ffffffffffffffffffffffffffffffffffffffff16815260200190815260200160002090506000610b1a828585611483565b90508060020160009054906101000a900460ff1615610b6e576040517f08c379a0000000000000000000000000000000000000000000000000000000008152600401610b6590611e90565b60405180910390fd5b60018160020160006101000a81548160ff0219169083151502179055506000600185610b9a9190611eb0565b905060008054906101000a900473ffffffffffffffffffffffffffffffffffffffff1673ffffffffffffffffffffffffffffffffffffffff1663a9059cbb8760048881548110610bed57610bec611ee4565b5b90600052602060002001546040518363ffffffff1660e01b8152600401610c15929190611cc7565b6020604051808303816000875af1158015610c34573d6000803e3d6000fd5b505050506040513d601f19601f82011682018060405250810190610c589190611b5d565b610c97576040517f08c379a0000000000000000000000000000000000000000000000000000000008152600401610c8e90611f5f565b60405180910390fd5b8573ffffffffffffffffffffffffffffffffffffffff167f2cc6d11dfc632469e7f760bc6cc605413cb63f6d83af3384862007655d91f33860048781548110610ce357610ce2611ee4565b5b90600052602060002001548787604051610cff93929190611f7f565b60405180910390a260078503610f835760005b600a811015610f7d5760016000600560009054906101000a900473ffffffffffffffffffffffffffffffffffffffff1673ffffffffffffffffffffffffffffffffffffffff1673ffffffffffffffffffffffffffffffffffffffff1681526020019081526020016000206000016040518060600160405280600181526020016002600060018152602001908152602001600020600101548152602001600015158152509080600181540180825580915050600190039060005260206000209060030201600090919091909150600082015181600001556020820151816001015560408201518160020160006101000a81548160ff02191690831515021790555050506002600060018152602001908152602001600020600201600560009054906101000a900473ffffffffffffffffffffffffffffffffffffffff169080600181540180825580915050600190039060005260206000200160009091909190916101000a81548173ffffffffffffffffffffffffffffffffffffffff021916908373ffffffffffffffffffffffffffffffffffffffff16021790555060026000600181526020019081526020016000206001016000815480929190610ed690611d5c565b91905055506001600560009054906101000a900473ffffffffffffffffffffffffffffffffffffffff1673ffffffffffffffffffffffffffffffffffffffff167f5d7a294516b4a1829eed3a951be2033d36906528a5bf9aa9760885fd55b0c7e86001600260006001815260200190815260200160002060010154610f5b9190611da4565b604051610f689190611896565b60405180910390a38080600101915050610d12565b50610fdf565b610f8e816000610455565b80858773ffffffffffffffffffffffffffffffffffffffff167fa4b503cf1a0317bfa062a721bd5edaa915a397798f63635c14deeccf2f17e40b87604051610fd69190611896565b60405180910390a45b505050505050565b6000600160008473ffffffffffffffffffffffffffffffffffffffff1673ffffffffffffffffffffffffffffffffffffffff16815260200190815260200160002060010160009054906101000a900473ffffffffffffffffffffffffffffffffffffffff16905060005b600380549050811080156110925750600073ffffffffffffffffffffffffffffffffffffffff168273ffffffffffffffffffffffffffffffffffffffff1614155b1561129e5760006064600383815481106110af576110ae611ee4565b5b906000526020600020016000015460026000878152602001908152602001600020600001546110de9190611c25565b6110e89190611c96565b905060008054906101000a900473ffffffffffffffffffffffffffffffffffffffff1673ffffffffffffffffffffffffffffffffffffffff1663a9059cbb84836040518363ffffffff1660e01b8152600401611145929190611cc7565b6020604051808303816000875af1158015611164573d6000803e3d6000fd5b505050506040513d601f19601f820116820180604052508101906111889190611b5d565b6111c7576040517f08c379a00000000000000000000000000000000000000000000000000000000081526004016111be90612002565b60405180910390fd5b8273ffffffffffffffffffffffffffffffffffffffff167fb63d16ce268f739ee8d407f4fe2c19a45e8cb4a4771fc0f0c54af2c07836cf7a828660018661120e9190611eb0565b60405161121d93929190611f7f565b60405180910390a2600160008473ffffffffffffffffffffffffffffffffffffffff1673ffffffffffffffffffffffffffffffffffffffff16815260200190815260200160002060010160009054906101000a900473ffffffffffffffffffffffffffffffffffffffff16925050808061129690611d5c565b915050611051565b50505050565b600182101580156112b55750600782105b6112f4576040517f08c379a00000000000000000000000000000000000000000000000000000000081526004016112eb90611ada565b60405180910390fd5b6002600083815260200190815260200160002060010154811061134c576040517f08c379a00000000000000000000000000000000000000000000000000000000081526004016113439061206e565b60405180910390fd5b600060026000848152602001908152602001600020600201828154811061137657611375611ee4565b5b9060005260206000200160009054906101000a900473ffffffffffffffffffffffffffffffffffffffff1690506000600160008373ffffffffffffffffffffffffffffffffffffffff1673ffffffffffffffffffffffffffffffffffffffff168152602001908152602001600020905060006113f3828686611483565b90508060020160009054906101000a900460ff1615611447576040517f08c379a000000000000000000000000000000000000000000000000000000000815260040161143e90612100565b60405180910390fd5b6003846114549190611eb0565b60026000878152602001908152602001600020600101541061147c5761147b838686610a5c565b5b5050505050565b600080600090505b846000018054905081101561153457838560000182815481106114b1576114b0611ee4565b5b9060005260206000209060030201600001541480156114f65750828560000182815481106114e2576114e1611ee4565b5b906000526020600020906003020160010154145b156115275784600001818154811061151157611510611ee4565b5b9060005260206000209060030201915050611570565b808060010191505061148b565b506040517f08c379a00000000000000000000000000000000000000000000000000000000081526004016115679061216c565b60405180910390fd5b9392505050565b600080fd5b6000819050919050565b61158f8161157c565b811461159a57600080fd5b50565b6000813590506115ac81611586565b92915050565b6000602082840312156115c8576115c7611577565b5b60006115d68482850161159d565b91505092915050565b600081519050919050565b600082825260208201905092915050565b6000819050602082019050919050565b600073ffffffffffffffffffffffffffffffffffffffff82169050919050565b60006116368261160b565b9050919050565b6116468161162b565b82525050565b6000611658838361163d565b60208301905092915050565b6000602082019050919050565b600061167c826115df565b61168681856115ea565b9350611691836115fb565b8060005b838110156116c25781516116a9888261164c565b97506116b483611664565b925050600181019050611695565b5085935050505092915050565b600060208201905081810360008301526116e98184611671565b905092915050565b6116fa8161162b565b811461170557600080fd5b50565b600081359050611717816116f1565b92915050565b60006020828403121561173357611732611577565b5b600061174184828501611708565b91505092915050565b600081519050919050565b600082825260208201905092915050565b6000819050602082019050919050565b61177f8161157c565b82525050565b60008115159050919050565b61179a81611785565b82525050565b6060820160008201516117b66000850182611776565b5060208201516117c96020850182611776565b5060408201516117dc6040850182611791565b50505050565b60006117ee83836117a0565b60608301905092915050565b6000602082019050919050565b60006118128261174a565b61181c8185611755565b935061182783611766565b8060005b8381101561185857815161183f88826117e2565b975061184a836117fa565b92505060018101905061182b565b5085935050505092915050565b6000602082019050818103600083015261187f8184611807565b905092915050565b6118908161157c565b82525050565b60006020820190506118ab6000830184611887565b92915050565b600080604083850312156118c8576118c7611577565b5b60006118d68582860161159d565b92505060206118e785828601611708565b9150509250929050565b6118fa8161162b565b82525050565b600060208201905061191560008301846118f1565b92915050565b60006040820190506119306000830185611887565b61193d6020830184611887565b9392505050565b6000819050919050565b600061196961196461195f8461160b565b611944565b61160b565b9050919050565b600061197b8261194e565b9050919050565b600061198d82611970565b9050919050565b61199d81611982565b82525050565b60006020820190506119b86000830184611994565b92915050565b6000806000606084860312156119d7576119d6611577565b5b60006119e586828701611708565b93505060206119f68682870161159d565b9250506040611a078682870161159d565b9150509250925092565b600082825260208201905092915050565b7f506f6f6c206e6f2076616c696461000000000000000000000000000000000000600082015250565b6000611a58600e83611a11565b9150611a6382611a22565b602082019050919050565b60006020820190508181036000830152611a8781611a4b565b9050919050565b7f506f6f6c206e6f2076616c69646f000000000000000000000000000000000000600082015250565b6000611ac4600e83611a11565b9150611acf82611a8e565b602082019050919050565b60006020820190508181036000830152611af381611ab7565b9050919050565b6000606082019050611b0f60008301866118f1565b611b1c60208301856118f1565b611b296040830184611887565b949350505050565b611b3a81611785565b8114611b4557600080fd5b50565b600081519050611b5781611b31565b92915050565b600060208284031215611b7357611b72611577565b5b6000611b8184828501611b48565b91505092915050565b7f5472616e73666572656e6369612066616c6c6964610000000000000000000000600082015250565b6000611bc0601583611a11565b9150611bcb82611b8a565b602082019050919050565b60006020820190508181036000830152611bef81611bb3565b9050919050565b7f4e487b7100000000000000000000000000000000000000000000000000000000600052601160045260246000fd5b6000611c308261157c565b9150611c3b8361157c565b9250828202611c498161157c565b91508282048414831517611c6057611c5f611bf6565b5b5092915050565b7f4e487b7100000000000000000000000000000000000000000000000000000000600052601260045260246000fd5b6000611ca18261157c565b9150611cac8361157c565b925082611cbc57611cbb611c67565b5b828204905092915050565b6000604082019050611cdc60008301856118f1565b611ce96020830184611887565b9392505050565b7f5061676f20616c2070726f796563746f2066616c6c69646f0000000000000000600082015250565b6000611d26601883611a11565b9150611d3182611cf0565b602082019050919050565b60006020820190508181036000830152611d5581611d19565b9050919050565b6000611d678261157c565b91507fffffffffffffffffffffffffffffffffffffffffffffffffffffffffffffffff8203611d9957611d98611bf6565b5b600182019050919050565b6000611daf8261157c565b9150611dba8361157c565b9250828203905081811115611dd257611dd1611bf6565b5b92915050565b7f4f6e6c7920436f6e747261637400000000000000000000000000000000000000600082015250565b6000611e0e600d83611a11565b9150611e1982611dd8565b602082019050919050565b60006020820190508181036000830152611e3d81611e01565b9050919050565b7f5961206861732070617361646f206573746520706f6f6c000000000000000000600082015250565b6000611e7a601783611a11565b9150611e8582611e44565b602082019050919050565b60006020820190508181036000830152611ea981611e6d565b9050919050565b6000611ebb8261157c565b9150611ec68361157c565b9250828201905080821115611ede57611edd611bf6565b5b92915050565b7f4e487b7100000000000000000000000000000000000000000000000000000000600052603260045260246000fd5b7f5061676f206465206176616e63652066616c6c69646f00000000000000000000600082015250565b6000611f49601683611a11565b9150611f5482611f13565b602082019050919050565b60006020820190508181036000830152611f7881611f3c565b9050919050565b6000606082019050611f946000830186611887565b611fa16020830185611887565b611fae6040830184611887565b949350505050565b7f5061676f20616c20726566657269646f2066616c6c69646f0000000000000000600082015250565b6000611fec601883611a11565b9150611ff782611fb6565b602082019050919050565b6000602082019050818103600083015261201b81611fdf565b9050919050565b7f506f736963696f6e206e6f2076616c69646120656e20656c20706f6f6c000000600082015250565b6000612058601d83611a11565b915061206382612022565b602082019050919050565b600060208201905081810360008301526120878161204b565b9050919050565b7f5961206861732070617361646f206573746520706f6f6c20636f6e206573746160008201527f20636f6d70726100000000000000000000000000000000000000000000000000602082015250565b60006120ea602783611a11565b91506120f58261208e565b604082019050919050565b60006020820190508181036000830152612119816120dd565b9050919050565b7f436f6d707261206e6f20656e636f6e7472616461000000000000000000000000600082015250565b6000612156601483611a11565b915061216182612120565b602082019050919050565b6000602082019050818103600083015261218581612149565b905091905056fea264697066735822122068be6b0ef88995dcb9eb5734d05f79a8da0a5cf4c304449d68816e3851668dc664736f6c63430008180033",
  "linkReferences": {},
  "deployedLinkReferences": {}
}