{
  "_format": "hh-sol-artifact-1",
  "contractName": "multiPoolV2",
  "sourceName": "contracts/multiPoolV2.sol",
  "abi": [
    {
      "inputs": [
        {
          "internalType": "address",
          "name": "_usdtAddress",
          "type": "address"
        },
        {
          "internalType": "address",
          "name": "_projectWallet",
          "type": "address"
        }
      ],
      "stateMutability": "nonpayable",
      "type": "constructor"
    },
    {
      "anonymous": false,
      "inputs": [
        {
          "indexed": true,
          "internalType": "address",
          "name": "user",
          "type": "address"
        },
        {
          "indexed": false,
          "internalType": "uint256",
          "name": "amount",
          "type": "uint256"
        },
        {
          "indexed": false,
          "internalType": "uint256",
          "name": "poolId",
          "type": "uint256"
        },
        {
          "indexed": false,
          "internalType": "uint256",
          "name": "position",
          "type": "uint256"
        }
      ],
      "name": "ExceedingPayment",
      "type": "event"
    },
    {
      "anonymous": false,
      "inputs": [
        {
          "indexed": true,
          "internalType": "address",
          "name": "user",
          "type": "address"
        },
        {
          "indexed": false,
          "internalType": "uint256",
          "name": "poolId",
          "type": "uint256"
        },
        {
          "indexed": false,
          "internalType": "uint256",
          "name": "missedCount",
          "type": "uint256"
        }
      ],
      "name": "MissedOpportunity",
      "type": "event"
    },
    {
      "anonymous": false,
      "inputs": [
        {
          "indexed": true,
          "internalType": "address",
          "name": "user",
          "type": "address"
        },
        {
          "indexed": false,
          "internalType": "uint256",
          "name": "amount",
          "type": "uint256"
        },
        {
          "indexed": false,
          "internalType": "uint256",
          "name": "poolId",
          "type": "uint256"
        },
        {
          "indexed": false,
          "internalType": "uint256",
          "name": "position",
          "type": "uint256"
        }
      ],
      "name": "PaymentDistributed",
      "type": "event"
    },
    {
      "anonymous": false,
      "inputs": [
        {
          "indexed": true,
          "internalType": "address",
          "name": "user",
          "type": "address"
        },
        {
          "indexed": true,
          "internalType": "uint256",
          "name": "fromPool",
          "type": "uint256"
        },
        {
          "indexed": true,
          "internalType": "uint256",
          "name": "toPool",
          "type": "uint256"
        },
        {
          "indexed": false,
          "internalType": "uint256",
          "name": "position",
          "type": "uint256"
        }
      ],
      "name": "PoolAdvanced",
      "type": "event"
    },
    {
      "anonymous": false,
      "inputs": [
        {
          "indexed": true,
          "internalType": "address",
          "name": "user",
          "type": "address"
        },
        {
          "indexed": true,
          "internalType": "uint256",
          "name": "poolId",
          "type": "uint256"
        },
        {
          "indexed": false,
          "internalType": "uint256",
          "name": "position",
          "type": "uint256"
        }
      ],
      "name": "PoolJoined",
      "type": "event"
    },
    {
      "inputs": [],
      "name": "USDT",
      "outputs": [
        {
          "internalType": "contract IERC20",
          "name": "",
          "type": "address"
        }
      ],
      "stateMutability": "view",
      "type": "function"
    },
    {
      "inputs": [
        {
          "internalType": "address",
          "name": "userAddress",
          "type": "address"
        }
      ],
      "name": "getInfoUser",
      "outputs": [
        {
          "internalType": "address",
          "name": "",
          "type": "address"
        },
        {
          "internalType": "uint256",
          "name": "",
          "type": "uint256"
        },
        {
          "internalType": "uint256",
          "name": "",
          "type": "uint256"
        }
      ],
      "stateMutability": "view",
      "type": "function"
    },
    {
      "inputs": [
        {
          "internalType": "address",
          "name": "userAddress",
          "type": "address"
        }
      ],
      "name": "getPurchases",
      "outputs": [
        {
          "components": [
            {
              "internalType": "uint256",
              "name": "poolId",
              "type": "uint256"
            },
            {
              "internalType": "uint256",
              "name": "position",
              "type": "uint256"
            },
            {
              "internalType": "bool",
              "name": "hasPassed",
              "type": "bool"
            },
            {
              "internalType": "bool",
              "name": "startedInThisPool",
              "type": "bool"
            }
          ],
          "internalType": "struct multiPoolV2.Purchase[]",
          "name": "",
          "type": "tuple[]"
        }
      ],
      "stateMutability": "view",
      "type": "function"
    },
    {
      "inputs": [
        {
          "internalType": "uint256",
          "name": "poolId",
          "type": "uint256"
        }
      ],
      "name": "getQueue",
      "outputs": [
        {
          "internalType": "address[]",
          "name": "",
          "type": "address[]"
        }
      ],
      "stateMutability": "view",
      "type": "function"
    },
    {
      "inputs": [
        {
          "internalType": "uint256",
          "name": "poolId",
          "type": "uint256"
        },
        {
          "internalType": "address",
          "name": "referrer",
          "type": "address"
        },
        {
          "internalType": "address",
          "name": "wallet",
          "type": "address"
        }
      ],
      "name": "joinPool",
      "outputs": [],
      "stateMutability": "nonpayable",
      "type": "function"
    },
    {
      "inputs": [
        {
          "internalType": "uint256",
          "name": "",
          "type": "uint256"
        }
      ],
      "name": "levels",
      "outputs": [
        {
          "internalType": "uint256",
          "name": "percentage",
          "type": "uint256"
        }
      ],
      "stateMutability": "view",
      "type": "function"
    },
    {
      "inputs": [],
      "name": "networkFeePercentage",
      "outputs": [
        {
          "internalType": "uint256",
          "name": "",
          "type": "uint256"
        }
      ],
      "stateMutability": "view",
      "type": "function"
    },
    {
      "inputs": [
        {
          "internalType": "uint256",
          "name": "",
          "type": "uint256"
        }
      ],
      "name": "payForExtraInPools",
      "outputs": [
        {
          "internalType": "uint256",
          "name": "",
          "type": "uint256"
        }
      ],
      "stateMutability": "view",
      "type": "function"
    },
    {
      "inputs": [
        {
          "internalType": "uint256",
          "name": "",
          "type": "uint256"
        }
      ],
      "name": "pools",
      "outputs": [
        {
          "internalType": "uint256",
          "name": "price",
          "type": "uint256"
        },
        {
          "internalType": "uint256",
          "name": "numUsers",
          "type": "uint256"
        }
      ],
      "stateMutability": "view",
      "type": "function"
    },
    {
      "inputs": [],
      "name": "projectFeePercentage",
      "outputs": [
        {
          "internalType": "uint256",
          "name": "",
          "type": "uint256"
        }
      ],
      "stateMutability": "view",
      "type": "function"
    },
    {
      "inputs": [],
      "name": "projectWallet",
      "outputs": [
        {
          "internalType": "address",
          "name": "",
          "type": "address"
        }
      ],
      "stateMutability": "view",
      "type": "function"
    },
    {
      "inputs": [],
      "name": "totalDistributed",
      "outputs": [
        {
          "internalType": "uint256",
          "name": "",
          "type": "uint256"
        }
      ],
      "stateMutability": "view",
      "type": "function"
    },
    {
      "inputs": [],
      "name": "totalExtra",
      "outputs": [
        {
          "internalType": "uint256",
          "name": "",
          "type": "uint256"
        }
      ],
      "stateMutability": "view",
      "type": "function"
    },
    {
      "inputs": [],
      "name": "totalPayed",
      "outputs": [
        {
          "internalType": "uint256",
          "name": "",
          "type": "uint256"
        }
      ],
      "stateMutability": "view",
      "type": "function"
    },
    {
      "inputs": [
        {
          "internalType": "address",
          "name": "",
          "type": "address"
        }
      ],
      "name": "users",
      "outputs": [
        {
          "internalType": "address",
          "name": "referrer",
          "type": "address"
        },
        {
          "internalType": "uint256",
          "name": "directReferrals",
          "type": "uint256"
        },
        {
          "internalType": "uint256",
          "name": "missedOpportunities",
          "type": "uint256"
        },
        {
          "internalType": "uint256",
          "name": "payedExtra",
          "type": "uint256"
        },
        {
          "internalType": "uint256",
          "name": "totalTree",
          "type": "uint256"
        }
      ],
      "stateMutability": "view",
      "type": "function"
    }
  ],
  "bytecode": "0x6080604052600a60065560146007553480156200001b57600080fd5b50604051620034f2380380620034f283398181016040528101906200004191906200054c565b80600560006101000a81548173ffffffffffffffffffffffffffffffffffffffff021916908373ffffffffffffffffffffffffffffffffffffffff160217905550816000806101000a81548173ffffffffffffffffffffffffffffffffffffffff021916908373ffffffffffffffffffffffffffffffffffffffff1602179055506302faf0806002600060018152602001908152602001600020600001819055506305f5e100600260006002815260200190815260200160002060000181905550630bebc2006002600060038152602001908152602001600020600001819055506311e1a3006002600060048152602001908152602001600020600001819055506317d78400600260006005815260200190815260200160002060000181905550631dcd6500600260006006815260200190815260200160002060000181905550633b9aca0060026000600781526020019081526020016000206000018190555060036040518060200160405280600a815250908060018154018082558091505060019003906000526020600020016000909190919091506000820151816000015550506003604051806020016040528060038152509080600181540180825580915050600190039060005260206000200160009091909190915060008201518160000155505060036040518060200160405280600281525090806001815401808255809150506001900390600052602060002001600090919091909150600082015181600001555050600360405180602001604052806001815250908060018154018082558091505060019003906000526020600020016000909190919091506000820151816000015550506003604051806020016040528060018152509080600181540180825580915050600190039060005260206000200160009091909190915060008201518160000155505060036040518060200160405280600181525090806001815401808255809150506001900390600052602060002001600090919091909150600082015181600001555050600360405180602001604052806002815250908060018154018082558091505060019003906000526020600020016000909190919091506000820151816000015550506004600090806001815401808255809150506001900390600052602060002001600090919091909150556004624c4b409080600181540180825580915050600190039060005260206000200160009091909190915055600462989680908060018154018082558091505060019003906000526020600020016000909190919091505560046307270e0090806001815401808255809150506001900390600052602060002001600090919091909150556004630db5858090806001815401808255809150506001900390600052602060002001600090919091909150556004631443fd00908060018154018082558091505060019003906000526020600020016000909190919091505560046302faf08090806001815401808255809150506001900390600052602060002001600090919091909150556004635f5e10009080600181540180825580915050600190039060005260206000200160009091909190915055505062000593565b600080fd5b600073ffffffffffffffffffffffffffffffffffffffff82169050919050565b60006200051482620004e7565b9050919050565b620005268162000507565b81146200053257600080fd5b50565b60008151905062000546816200051b565b92915050565b60008060408385031215620005665762000565620004e2565b5b6000620005768582860162000535565b9250506020620005898582860162000535565b9150509250929050565b612f4f80620005a36000396000f3fe608060405234801561001057600080fd5b50600436106100f55760003560e01c8063ac4afa3811610097578063bfe7145c11610066578063bfe7145c146102b5578063c54e44eb146102e5578063cbf4b23b14610303578063efca2eed14610321576100f5565b8063ac4afa3814610218578063b2596a6714610249578063bc57910314610279578063beb08ab914610297576100f5565b8063843fa808116100d3578063843fa8081461017857806393f7d5cf1461019457806399452393146101c6578063a87430ba146101e4576100f5565b80630be8fffc146100fa57806370cd5a801461012a5780637c3265421461015a575b600080fd5b610114600480360381019061010f9190612264565b61033f565b6040516101219190612381565b60405180910390f35b610144600480360381019061013f91906123cf565b610434565b604051610151919061252a565b60405180910390f35b61016261051f565b60405161016f919061255b565b60405180910390f35b610192600480360381019061018d9190612576565b610525565b005b6101ae60048036038101906101a991906123cf565b610b0a565b6040516101bd939291906125d8565b60405180910390f35b6101ce610c05565b6040516101db919061255b565b60405180910390f35b6101fe60048036038101906101f991906123cf565b610c0b565b60405161020f95949392919061260f565b60405180910390f35b610232600480360381019061022d9190612264565b610c61565b604051610240929190612662565b60405180910390f35b610263600480360381019061025e9190612264565b610c85565b604051610270919061255b565b60405180910390f35b610281610caf565b60405161028e919061255b565b60405180910390f35b61029f610cb5565b6040516102ac919061268b565b60405180910390f35b6102cf60048036038101906102ca9190612264565b610cdb565b6040516102dc919061255b565b60405180910390f35b6102ed610cff565b6040516102fa9190612705565b60405180910390f35b61030b610d23565b604051610318919061255b565b60405180910390f35b610329610d29565b604051610336919061255b565b60405180910390f35b606060018210158015610353575060078211155b610392576040517f08c379a00000000000000000000000000000000000000000000000000000000081526004016103899061277d565b60405180910390fd5b6002600083815260200190815260200160002060020180548060200260200160405190810160405280929190818152602001828054801561042857602002820191906000526020600020905b8160009054906101000a900473ffffffffffffffffffffffffffffffffffffffff1673ffffffffffffffffffffffffffffffffffffffff16815260200190600101908083116103de575b50505050509050919050565b6060600160008373ffffffffffffffffffffffffffffffffffffffff1673ffffffffffffffffffffffffffffffffffffffff168152602001908152602001600020600001805480602002602001604051908101604052809291908181526020016000905b82821015610514578382906000526020600020906003020160405180608001604052908160008201548152602001600182015481526020016002820160009054906101000a900460ff161515151581526020016002820160019054906101000a900460ff16151515158152505081526020019060010190610498565b505050509050919050565b60075481565b60018310158015610537575060078311155b610576576040517f08c379a000000000000000000000000000000000000000000000000000000000815260040161056d906127e9565b60405180910390fd5b6000600160008373ffffffffffffffffffffffffffffffffffffffff1673ffffffffffffffffffffffffffffffffffffffff168152602001908152602001600020905060006002600086815260200190815260200160002060010154905060008260000180549050036106b457838260010160006101000a81548173ffffffffffffffffffffffffffffffffffffffff021916908373ffffffffffffffffffffffffffffffffffffffff160217905550600073ffffffffffffffffffffffffffffffffffffffff168473ffffffffffffffffffffffffffffffffffffffff16146106b357600160008573ffffffffffffffffffffffffffffffffffffffff1673ffffffffffffffffffffffffffffffffffffffff16815260200190815260200160002060020160008154809291906106ad90612838565b91905055505b5b3073ffffffffffffffffffffffffffffffffffffffff168373ffffffffffffffffffffffffffffffffffffffff16146107dd5760008054906101000a900473ffffffffffffffffffffffffffffffffffffffff1673ffffffffffffffffffffffffffffffffffffffff166323b872dd8430600260008a8152602001908152602001600020600001546040518463ffffffff1660e01b815260040161075a93929190612880565b6020604051808303816000875af1158015610779573d6000803e3d6000fd5b505050506040513d601f19601f8201168201806040525081019061079d91906128e3565b6107dc576040517f08c379a00000000000000000000000000000000000000000000000000000000081526004016107d39061295c565b60405180910390fd5b5b600260008681526020019081526020016000206000015460086000828254610805919061297c565b92505081905550600060026000878152602001908152602001600020600001549050600060646006548361083991906129b0565b6108439190612a21565b905060008054906101000a900473ffffffffffffffffffffffffffffffffffffffff1673ffffffffffffffffffffffffffffffffffffffff1663a9059cbb600560009054906101000a900473ffffffffffffffffffffffffffffffffffffffff16836040518363ffffffff1660e01b81526004016108c2929190612a52565b6020604051808303816000875af11580156108e1573d6000803e3d6000fd5b505050506040513d601f19601f8201168201806040525081019061090591906128e3565b610944576040517f08c379a000000000000000000000000000000000000000000000000000000000815260040161093b90612ac7565b60405180910390fd5b83600001604051806080016040528089815260200185815260200160001515815260200160058a101515158152509080600181540180825580915050600190039060005260206000209060030201600090919091909150600082015181600001556020820151816001015560408201518160020160006101000a81548160ff02191690831515021790555060608201518160020160016101000a81548160ff021916908315150217905550505060026000888152602001908152602001600020600201859080600181540180825580915050600190039060005260206000200160009091909190916101000a81548173ffffffffffffffffffffffffffffffffffffffff021916908373ffffffffffffffffffffffffffffffffffffffff160217905550600260008881526020019081526020016000206001016000815480929190610a8f90612838565b9190505550868573ffffffffffffffffffffffffffffffffffffffff167f5d7a294516b4a1829eed3a951be2033d36906528a5bf9aa9760885fd55b0c7e885604051610adb919061255b565b60405180910390a3610aed8588610d2f565b60038310610b0157610b0087600061105e565b5b50505050505050565b6000806000600160008573ffffffffffffffffffffffffffffffffffffffff1673ffffffffffffffffffffffffffffffffffffffff16815260200190815260200160002060010160009054906101000a900473ffffffffffffffffffffffffffffffffffffffff16600160008673ffffffffffffffffffffffffffffffffffffffff1673ffffffffffffffffffffffffffffffffffffffff16815260200190815260200160002060020154600160008773ffffffffffffffffffffffffffffffffffffffff1673ffffffffffffffffffffffffffffffffffffffff168152602001908152602001600020600301549250925092509193909250565b600a5481565b60016020528060005260406000206000915090508060010160009054906101000a900473ffffffffffffffffffffffffffffffffffffffff16908060020154908060030154908060040154908060050154905085565b60026020528060005260406000206000915090508060000154908060010154905082565b60038181548110610c9557600080fd5b906000526020600020016000915090508060000154905081565b60085481565b600560009054906101000a900473ffffffffffffffffffffffffffffffffffffffff1681565b60048181548110610ceb57600080fd5b906000526020600020016000915090505481565b60008054906101000a900473ffffffffffffffffffffffffffffffffffffffff1681565b60065481565b60095481565b6000600160008473ffffffffffffffffffffffffffffffffffffffff1673ffffffffffffffffffffffffffffffffffffffff16815260200190815260200160002060010160009054906101000a900473ffffffffffffffffffffffffffffffffffffffff16905060005b60038054905081108015610dda5750600073ffffffffffffffffffffffffffffffffffffffff168273ffffffffffffffffffffffffffffffffffffffff1614155b15611058576000606460038381548110610df757610df6612ae7565b5b90600052602060002001600001546002600087815260200190815260200160002060000154610e2691906129b0565b610e309190612a21565b905060008054906101000a900473ffffffffffffffffffffffffffffffffffffffff1673ffffffffffffffffffffffffffffffffffffffff1663a9059cbb84836040518363ffffffff1660e01b8152600401610e8d929190612a52565b6020604051808303816000875af1158015610eac573d6000803e3d6000fd5b505050506040513d601f19601f82011682018060405250810190610ed091906128e3565b610f0f576040517f08c379a0000000000000000000000000000000000000000000000000000000008152600401610f0690612b62565b60405180910390fd5b80600160008573ffffffffffffffffffffffffffffffffffffffff1673ffffffffffffffffffffffffffffffffffffffff1681526020019081526020016000206005016000828254610f61919061297c565b925050819055508273ffffffffffffffffffffffffffffffffffffffff167fb63d16ce268f739ee8d407f4fe2c19a45e8cb4a4771fc0f0c54af2c07836cf7a8286600186610faf919061297c565b604051610fbe93929190612b82565b60405180910390a28060096000828254610fd8919061297c565b92505081905550600160008473ffffffffffffffffffffffffffffffffffffffff1673ffffffffffffffffffffffffffffffffffffffff16815260200190815260200160002060010160009054906101000a900473ffffffffffffffffffffffffffffffffffffffff16925050808061105090612838565b915050610d99565b50505050565b60018210158015611070575060078211155b6110af576040517f08c379a00000000000000000000000000000000000000000000000000000000081526004016110a6906127e9565b60405180910390fd5b60026000838152602001908152602001600020600101548110611107576040517f08c379a00000000000000000000000000000000000000000000000000000000081526004016110fe90612c05565b60405180910390fd5b600060026000848152602001908152602001600020600201828154811061113157611130612ae7565b5b9060005260206000200160009054906101000a900473ffffffffffffffffffffffffffffffffffffffff1690506000600160008373ffffffffffffffffffffffffffffffffffffffff1673ffffffffffffffffffffffffffffffffffffffff168152602001908152602001600020905060006111ae8286866113ea565b905060006111bb866114de565b90508083600201541015806111de57508160020160019054906101000a900460ff165b156111f3576111ee848787611550565b6113e2565b82600301600081548092919061120890612838565b91905055508373ffffffffffffffffffffffffffffffffffffffff167f982434c7ce9a7d98b21e4c0cdde4fa70352156fdcd44ea57a7c31217af1429ea878560030154604051611259929190612662565b60405180910390a26000600186611270919061297c565b90505b60026000888152602001908152602001600020600101548110156113e05760006002600089815260200190815260200160002060020182815481106112bb576112ba612ae7565b5b9060005260206000200160009054906101000a900473ffffffffffffffffffffffffffffffffffffffff1690506000600160008373ffffffffffffffffffffffffffffffffffffffff1673ffffffffffffffffffffffffffffffffffffffff168152602001908152602001600020905083816002015410158061134c57508460020160019054906101000a900460ff165b156113635761135c828a85611550565b50506113e0565b80600301600081548092919061137890612838565b91905055508173ffffffffffffffffffffffffffffffffffffffff167f982434c7ce9a7d98b21e4c0cdde4fa70352156fdcd44ea57a7c31217af1429ea8a83600301546040516113c9929190612662565b60405180910390a250508080600101915050611273565b505b505050505050565b600080600090505b846000018054905081101561149b578385600001828154811061141857611417612ae7565b5b90600052602060002090600302016000015414801561145d57508285600001828154811061144957611448612ae7565b5b906000526020600020906003020160010154145b1561148e5784600001818154811061147857611477612ae7565b5b90600052602060002090600302019150506114d7565b80806001019150506113f2565b506040517f08c379a00000000000000000000000000000000000000000000000000000000081526004016114ce90612c71565b60405180910390fd5b9392505050565b6000600182036114f1576000905061154b565b60028203611502576001905061154b565b60038203611513576002905061154b565b60048203611524576003905061154b565b60058203611535576004905061154b565b60068203611546576005905061154b565b600090505b919050565b6000600160008573ffffffffffffffffffffffffffffffffffffffff1673ffffffffffffffffffffffffffffffffffffffff168152602001908152602001600020905060006115a08285856113ea565b905060018160020160006101000a81548160ff02191690831515021790555060006001856115ce919061297c565b90506115da8585611927565b60008490505b60026000878152602001908152602001600020600201805490508110156116cf57600060026000888152602001908152602001600020600201828154811061162b5761162a612ae7565b5b9060005260206000200160009054906101000a900473ffffffffffffffffffffffffffffffffffffffff1690506000600160008373ffffffffffffffffffffffffffffffffffffffff1673ffffffffffffffffffffffffffffffffffffffff168152602001908152602001600020905060006116b4828a6001876116af919061297c565b6113ea565b905083816001018190555050505080806001019150506115e0565b5060008054906101000a900473ffffffffffffffffffffffffffffffffffffffff1673ffffffffffffffffffffffffffffffffffffffff1663a9059cbb876004888154811061172157611720612ae7565b5b90600052602060002001546040518363ffffffff1660e01b8152600401611749929190612a52565b6020604051808303816000875af1158015611768573d6000803e3d6000fd5b505050506040513d601f19601f8201168201806040525081019061178c91906128e3565b6117cb576040517f08c379a00000000000000000000000000000000000000000000000000000000081526004016117c290612cdd565b60405180910390fd5b8573ffffffffffffffffffffffffffffffffffffffff167f2cc6d11dfc632469e7f760bc6cc605413cb63f6d83af3384862007655d91f3386004878154811061181757611816612ae7565b5b9060005260206000200154878760405161183393929190612b82565b60405180910390a26004858154811061184f5761184e612ae7565b5b9060005260206000200154600a600082825461186b919061297c565b925050819055506004858154811061188657611885612ae7565b5b90600052602060002001548360040160008282546118a4919061297c565b92505081905550600785036118c4576118bf60016003611b1d565b61191f565b6118ce8187611e91565b80858773ffffffffffffffffffffffffffffffffffffffff167fa4b503cf1a0317bfa062a721bd5edaa915a397798f63635c14deeccf2f17e40b87604051611916919061255b565b60405180910390a45b505050505050565b60026000838152602001908152602001600020600201805490508110611982576040517f08c379a000000000000000000000000000000000000000000000000000000000815260040161197990612d49565b60405180910390fd5b60008190505b600160026000858152602001908152602001600020600201805490506119ae9190612d69565b811015611a9157600260008481526020019081526020016000206002016001826119d8919061297c565b815481106119e9576119e8612ae7565b5b9060005260206000200160009054906101000a900473ffffffffffffffffffffffffffffffffffffffff16600260008581526020019081526020016000206002018281548110611a3c57611a3b612ae7565b5b9060005260206000200160006101000a81548173ffffffffffffffffffffffffffffffffffffffff021916908373ffffffffffffffffffffffffffffffffffffffff1602179055508080600101915050611988565b5060026000838152602001908152602001600020600201805480611ab857611ab7612d9d565b5b6001900381819060005260206000200160006101000a81549073ffffffffffffffffffffffffffffffffffffffff02191690559055600260008381526020019081526020016000206001016000815480929190611b1490612dcc565b91905055505050565b60018210158015611b2f575060078211155b611b6e576040517f08c379a0000000000000000000000000000000000000000000000000000000008152600401611b65906127e9565b60405180910390fd5b60008111611bb1576040517f08c379a0000000000000000000000000000000000000000000000000000000008152600401611ba890612e67565b60405180910390fd5b8060026000848152602001908152602001600020600101541015611c0a576040517f08c379a0000000000000000000000000000000000000000000000000000000008152600401611c0190612ef9565b60405180910390fd5b60005b81811015611cfc5760006002600060018152602001908152602001600020600201600081548110611c4157611c40612ae7565b5b9060005260206000200160009054906101000a900473ffffffffffffffffffffffffffffffffffffffff1690506000600160008373ffffffffffffffffffffffffffffffffffffffff1673ffffffffffffffffffffffffffffffffffffffff16815260200190815260200160002090506000611cc082600160006113ea565b905060018160020160006101000a81548160ff021916908315150217905550611cec8360016000611550565b5050508080600101915050611c0d565b506000600290505b60078111611e8c575b600360026000838152602001908152602001600020600101541115611e79576000805b6002600084815260200190815260200160002060010154811015611e54576000600260008581526020019081526020016000206002018281548110611d7857611d77612ae7565b5b9060005260206000200160009054906101000a900473ffffffffffffffffffffffffffffffffffffffff1690506000600160008373ffffffffffffffffffffffffffffffffffffffff1673ffffffffffffffffffffffffffffffffffffffff16815260200190815260200160002090506000611df58287866113ea565b9050611e00866114de565b8260020154101580611e2057508060020160019054906101000a900460ff165b15611e34578480611e3090612838565b9550505b60038510611e4457505050611e54565b5050508080600101915050611d30565b5060038110611e6d57611e6882600061105e565b611e73565b50611e79565b50611d0d565b8080611e8490612838565b915050611d04565b505050565b60018210158015611ea3575060078211155b611ee2576040517f08c379a0000000000000000000000000000000000000000000000000000000008152600401611ed9906127e9565b60405180910390fd5b6000600160008373ffffffffffffffffffffffffffffffffffffffff1673ffffffffffffffffffffffffffffffffffffffff16815260200190815260200160002090506000600260008581526020019081526020016000206001015490506000600260008681526020019081526020016000206000015490506000606460065483611f6d91906129b0565b611f779190612a21565b905060008054906101000a900473ffffffffffffffffffffffffffffffffffffffff1673ffffffffffffffffffffffffffffffffffffffff1663a9059cbb600560009054906101000a900473ffffffffffffffffffffffffffffffffffffffff16836040518363ffffffff1660e01b8152600401611ff6929190612a52565b6020604051808303816000875af1158015612015573d6000803e3d6000fd5b505050506040513d601f19601f8201168201806040525081019061203991906128e3565b612078576040517f08c379a000000000000000000000000000000000000000000000000000000000815260040161206f90612ac7565b60405180910390fd5b836000016040518060800160405280888152602001858152602001600015158152602001600589101515158152509080600181540180825580915050600190039060005260206000209060030201600090919091909150600082015181600001556020820151816001015560408201518160020160006101000a81548160ff02191690831515021790555060608201518160020160016101000a81548160ff021916908315150217905550505060026000878152602001908152602001600020600201859080600181540180825580915050600190039060005260206000200160009091909190916101000a81548173ffffffffffffffffffffffffffffffffffffffff021916908373ffffffffffffffffffffffffffffffffffffffff1602179055506002600087815260200190815260200160002060010160008154809291906121c390612838565b9190505550858573ffffffffffffffffffffffffffffffffffffffff167f5d7a294516b4a1829eed3a951be2033d36906528a5bf9aa9760885fd55b0c7e88560405161220f919061255b565b60405180910390a36122218587610d2f565b505050505050565b600080fd5b6000819050919050565b6122418161222e565b811461224c57600080fd5b50565b60008135905061225e81612238565b92915050565b60006020828403121561227a57612279612229565b5b60006122888482850161224f565b91505092915050565b600081519050919050565b600082825260208201905092915050565b6000819050602082019050919050565b600073ffffffffffffffffffffffffffffffffffffffff82169050919050565b60006122e8826122bd565b9050919050565b6122f8816122dd565b82525050565b600061230a83836122ef565b60208301905092915050565b6000602082019050919050565b600061232e82612291565b612338818561229c565b9350612343836122ad565b8060005b8381101561237457815161235b88826122fe565b975061236683612316565b925050600181019050612347565b5085935050505092915050565b6000602082019050818103600083015261239b8184612323565b905092915050565b6123ac816122dd565b81146123b757600080fd5b50565b6000813590506123c9816123a3565b92915050565b6000602082840312156123e5576123e4612229565b5b60006123f3848285016123ba565b91505092915050565b600081519050919050565b600082825260208201905092915050565b6000819050602082019050919050565b6124318161222e565b82525050565b60008115159050919050565b61244c81612437565b82525050565b6080820160008201516124686000850182612428565b50602082015161247b6020850182612428565b50604082015161248e6040850182612443565b5060608201516124a16060850182612443565b50505050565b60006124b38383612452565b60808301905092915050565b6000602082019050919050565b60006124d7826123fc565b6124e18185612407565b93506124ec83612418565b8060005b8381101561251d57815161250488826124a7565b975061250f836124bf565b9250506001810190506124f0565b5085935050505092915050565b6000602082019050818103600083015261254481846124cc565b905092915050565b6125558161222e565b82525050565b6000602082019050612570600083018461254c565b92915050565b60008060006060848603121561258f5761258e612229565b5b600061259d8682870161224f565b93505060206125ae868287016123ba565b92505060406125bf868287016123ba565b9150509250925092565b6125d2816122dd565b82525050565b60006060820190506125ed60008301866125c9565b6125fa602083018561254c565b612607604083018461254c565b949350505050565b600060a08201905061262460008301886125c9565b612631602083018761254c565b61263e604083018661254c565b61264b606083018561254c565b612658608083018461254c565b9695505050505050565b6000604082019050612677600083018561254c565b612684602083018461254c565b9392505050565b60006020820190506126a060008301846125c9565b92915050565b6000819050919050565b60006126cb6126c66126c1846122bd565b6126a6565b6122bd565b9050919050565b60006126dd826126b0565b9050919050565b60006126ef826126d2565b9050919050565b6126ff816126e4565b82525050565b600060208201905061271a60008301846126f6565b92915050565b600082825260208201905092915050565b7f506f6f6c206e6f2076616c696461000000000000000000000000000000000000600082015250565b6000612767600e83612720565b915061277282612731565b602082019050919050565b600060208201905081810360008301526127968161275a565b9050919050565b7f506f6f6c206e6f2076616c69646f000000000000000000000000000000000000600082015250565b60006127d3600e83612720565b91506127de8261279d565b602082019050919050565b60006020820190508181036000830152612802816127c6565b9050919050565b7f4e487b7100000000000000000000000000000000000000000000000000000000600052601160045260246000fd5b60006128438261222e565b91507fffffffffffffffffffffffffffffffffffffffffffffffffffffffffffffffff820361287557612874612809565b5b600182019050919050565b600060608201905061289560008301866125c9565b6128a260208301856125c9565b6128af604083018461254c565b949350505050565b6128c081612437565b81146128cb57600080fd5b50565b6000815190506128dd816128b7565b92915050565b6000602082840312156128f9576128f8612229565b5b6000612907848285016128ce565b91505092915050565b7f5472616e73666572656e6369612066616c6c6964610000000000000000000000600082015250565b6000612946601583612720565b915061295182612910565b602082019050919050565b6000602082019050818103600083015261297581612939565b9050919050565b60006129878261222e565b91506129928361222e565b92508282019050808211156129aa576129a9612809565b5b92915050565b60006129bb8261222e565b91506129c68361222e565b92508282026129d48161222e565b915082820484148315176129eb576129ea612809565b5b5092915050565b7f4e487b7100000000000000000000000000000000000000000000000000000000600052601260045260246000fd5b6000612a2c8261222e565b9150612a378361222e565b925082612a4757612a466129f2565b5b828204905092915050565b6000604082019050612a6760008301856125c9565b612a74602083018461254c565b9392505050565b7f5061676f20616c2070726f796563746f2066616c6c69646f0000000000000000600082015250565b6000612ab1601883612720565b9150612abc82612a7b565b602082019050919050565b60006020820190508181036000830152612ae081612aa4565b9050919050565b7f4e487b7100000000000000000000000000000000000000000000000000000000600052603260045260246000fd5b7f5061676f20616c20726566657269646f2066616c6c69646f0000000000000000600082015250565b6000612b4c601883612720565b9150612b5782612b16565b602082019050919050565b60006020820190508181036000830152612b7b81612b3f565b9050919050565b6000606082019050612b97600083018661254c565b612ba4602083018561254c565b612bb1604083018461254c565b949350505050565b7f506f736963696f6e206e6f2076616c69646120656e20656c20706f6f6c000000600082015250565b6000612bef601d83612720565b9150612bfa82612bb9565b602082019050919050565b60006020820190508181036000830152612c1e81612be2565b9050919050565b7f436f6d707261206e6f20656e636f6e7472616461000000000000000000000000600082015250565b6000612c5b601483612720565b9150612c6682612c25565b602082019050919050565b60006020820190508181036000830152612c8a81612c4e565b9050919050565b7f5061676f206465206176616e63652066616c6c69646f00000000000000000000600082015250565b6000612cc7601683612720565b9150612cd282612c91565b602082019050919050565b60006020820190508181036000830152612cf681612cba565b9050919050565b7f506f736963696f6e206e6f2076616c6964610000000000000000000000000000600082015250565b6000612d33601283612720565b9150612d3e82612cfd565b602082019050919050565b60006020820190508181036000830152612d6281612d26565b9050919050565b6000612d748261222e565b9150612d7f8361222e565b9250828203905081811115612d9757612d96612809565b5b92915050565b7f4e487b7100000000000000000000000000000000000000000000000000000000600052603160045260246000fd5b6000612dd78261222e565b915060008203612dea57612de9612809565b5b600182039050919050565b7f506f736963696f6e65732061206d6f76657220646562656e20736572206d617960008201527f6f72206120300000000000000000000000000000000000000000000000000000602082015250565b6000612e51602683612720565b9150612e5c82612df5565b604082019050919050565b60006020820190508181036000830152612e8081612e44565b9050919050565b7f4e6f2068617920737566696369656e746573207573756172696f7320656e206c60008201527f6120506f6f6c0000000000000000000000000000000000000000000000000000602082015250565b6000612ee3602683612720565b9150612eee82612e87565b604082019050919050565b60006020820190508181036000830152612f1281612ed6565b905091905056fea26469706673582212205b459c58c36d0dd3adc64a8baa461512583d87ab13b412fe2a7cc428ac686bec64736f6c63430008180033",
  "linkReferences": {},
  "deployedLinkReferences": {}
}